{"abi":[{"type":"constructor","inputs":[{"name":"_semaphoreAddress","type":"address","internalType":"address"},{"name":"_ombuAdmin","type":"address","internalType":"address"}],"stateMutability":"nonpayable"},{"type":"function","name":"addMember","inputs":[{"name":"_groupId","type":"uint256","internalType":"uint256"},{"name":"_identityCommitment","type":"uint256","internalType":"uint256"}],"outputs":[],"stateMutability":"nonpayable"},{"type":"function","name":"admin","inputs":[],"outputs":[{"name":"","type":"address","internalType":"address"}],"stateMutability":"view"},{"type":"function","name":"changeAdmin","inputs":[{"name":"_newAdmin","type":"address","internalType":"address"}],"outputs":[],"stateMutability":"nonpayable"},{"type":"function","name":"createGroup","inputs":[{"name":"_name","type":"string","internalType":"string"}],"outputs":[{"name":"","type":"uint256","internalType":"uint256"}],"stateMutability":"nonpayable"},{"type":"function","name":"createMainPost","inputs":[{"name":"_groupId","type":"uint256","internalType":"uint256"},{"name":"_content","type":"string","internalType":"string"}],"outputs":[],"stateMutability":"nonpayable"},{"type":"function","name":"createSubPost","inputs":[{"name":"_groupId","type":"uint256","internalType":"uint256"},{"name":"_mainPostId","type":"uint256","internalType":"uint256"},{"name":"_content","type":"string","internalType":"string"}],"outputs":[],"stateMutability":"nonpayable"},{"type":"function","name":"groupCounter","inputs":[],"outputs":[{"name":"","type":"uint256","internalType":"uint256"}],"stateMutability":"view"},{"type":"function","name":"groupNames","inputs":[{"name":"groupId","type":"uint256","internalType":"uint256"}],"outputs":[{"name":"name","type":"string","internalType":"string"}],"stateMutability":"view"},{"type":"function","name":"groupPostCounters","inputs":[{"name":"groupId","type":"uint256","internalType":"uint256"}],"outputs":[{"name":"postIDCounter","type":"uint256","internalType":"uint256"}],"stateMutability":"view"},{"type":"function","name":"groupPosts","inputs":[{"name":"groupId","type":"uint256","internalType":"uint256"},{"name":"ombuPostId","type":"uint256","internalType":"uint256"}],"outputs":[{"name":"author","type":"address","internalType":"address"},{"name":"content","type":"string","internalType":"string"},{"name":"timestamp","type":"uint32","internalType":"uint32"},{"name":"upvotes","type":"uint32","internalType":"uint32"},{"name":"downvotes","type":"uint32","internalType":"uint32"}],"stateMutability":"view"},{"type":"function","name":"groups","inputs":[{"name":"","type":"uint256","internalType":"uint256"}],"outputs":[{"name":"","type":"uint256","internalType":"uint256"}],"stateMutability":"view"},{"type":"function","name":"postSubPosts","inputs":[{"name":"groupId","type":"uint256","internalType":"uint256"},{"name":"ombuPostId","type":"uint256","internalType":"uint256"},{"name":"subPostId","type":"uint256","internalType":"uint256"}],"outputs":[{"name":"author","type":"address","internalType":"address"},{"name":"content","type":"string","internalType":"string"},{"name":"timestamp","type":"uint32","internalType":"uint32"},{"name":"upvotes","type":"uint32","internalType":"uint32"},{"name":"downvotes","type":"uint32","internalType":"uint32"}],"stateMutability":"view"},{"type":"function","name":"removeMember","inputs":[{"name":"_groupId","type":"uint256","internalType":"uint256"},{"name":"_identityCommitment","type":"uint256","internalType":"uint256"},{"name":"_merkleProofSiblings","type":"uint256[]","internalType":"uint256[]"}],"outputs":[],"stateMutability":"nonpayable"},{"type":"function","name":"semaphore","inputs":[],"outputs":[{"name":"","type":"address","internalType":"contract ISemaphore"}],"stateMutability":"view"},{"type":"function","name":"userPostVotes","inputs":[{"name":"user","type":"address","internalType":"address"},{"name":"groupId","type":"uint256","internalType":"uint256"},{"name":"postId","type":"uint256","internalType":"uint256"}],"outputs":[{"name":"hasVoted","type":"bool","internalType":"bool"}],"stateMutability":"view"},{"type":"function","name":"userSubPostVotes","inputs":[{"name":"user","type":"address","internalType":"address"},{"name":"groupId","type":"uint256","internalType":"uint256"},{"name":"postId","type":"uint256","internalType":"uint256"},{"name":"subPostId","type":"uint256","internalType":"uint256"}],"outputs":[{"name":"hasVoted","type":"bool","internalType":"bool"}],"stateMutability":"view"},{"type":"function","name":"voteOnPost","inputs":[{"name":"_groupId","type":"uint256","internalType":"uint256"},{"name":"_postId","type":"uint256","internalType":"uint256"},{"name":"_isUpvote","type":"bool","internalType":"bool"}],"outputs":[],"stateMutability":"nonpayable"},{"type":"function","name":"voteOnSubPost","inputs":[{"name":"_groupId","type":"uint256","internalType":"uint256"},{"name":"_postId","type":"uint256","internalType":"uint256"},{"name":"_subPostId","type":"uint256","internalType":"uint256"},{"name":"_isUpvote","type":"bool","internalType":"bool"}],"outputs":[],"stateMutability":"nonpayable"},{"type":"event","name":"change_Admin","inputs":[{"name":"_newAdmin","type":"address","indexed":false,"internalType":"address"}],"anonymous":false}],"bytecode":{"object":"0x608060405234801561000f575f5ffd5b506040516115b83803806115b883398101604081905261002e91610165565b5f80546001600160a01b03199081166001600160a01b03858116918217845560028054909316908516179091556040805163575185ed60e01b8152905163575185ed91600480820192602092909190829003018187875af1158015610095573d5f5f3e3d5ffd5b505050506040513d601f19601f820116820180604052508101906100b99190610196565b600180549192505f6100ca836101ad565b909155505060048054600181019091557f8a35acfbc15ff81a39ae7d344fd709f28e8600b4aa8c65c6b64bfe7fe36bd19b01819055604080518082018252601081526f24b73b34b9b4b136329023b0b93232b760811b6020828101919091525f848152600590915291909120906101419082610269565b50505050610323565b80516001600160a01b0381168114610160575f5ffd5b919050565b5f5f60408385031215610176575f5ffd5b61017f8361014a565b915061018d6020840161014a565b90509250929050565b5f602082840312156101a6575f5ffd5b5051919050565b5f600182016101ca57634e487b7160e01b5f52601160045260245ffd5b5060010190565b634e487b7160e01b5f52604160045260245ffd5b600181811c908216806101f957607f821691505b60208210810361021757634e487b7160e01b5f52602260045260245ffd5b50919050565b601f82111561026457805f5260205f20601f840160051c810160208510156102425750805b601f840160051c820191505b81811015610261575f815560010161024e565b50505b505050565b81516001600160401b03811115610282576102826101d1565b6102968161029084546101e5565b8461021d565b6020601f8211600181146102c8575f83156102b15750848201515b5f19600385901b1c1916600184901b178455610261565b5f84815260208120601f198516915b828110156102f757878501518255602094850194600190920191016102d7565b508482101561031457868401515f19600387901b60f8161c191681555b50505050600190811b01905550565b611288806103305f395ff3fe608060405234801561000f575f5ffd5b5060043610610111575f3560e01c806396324bd41161009e578063d24924fe1161006e578063d24924fe1461028a578063d4d59e8314610293578063d6271edf146102cf578063dc2ddcae146102ef578063f851a44014610302575f5ffd5b806396324bd4146101f35780639db2cb8214610214578063bbff66f914610257578063c2d4ccc814610276575f5ffd5b806366efb926116100e457806366efb9261461017d5780636cdd32fe146101905780636cff15cc146101a35780637b5d2534146101b65780638f283970146101e0575f5ffd5b8063095c7f28146101155780631783efc31461014257806346dbd6cd1461015757806349d3a50a1461016a575b5f5ffd5b610128610123366004610bd8565b610315565b604051610139959493929190610c26565b60405180910390f35b610155610150366004610bd8565b6103ef565b005b610155610165366004610c84565b610452565b610128610178366004610cb6565b6105fd565b61015561018b366004610d24565b610639565b61015561019e366004610d73565b6107ca565b6101556101b1366004610df2565b61085c565b5f546101c8906001600160a01b031681565b6040516001600160a01b039091168152602001610139565b6101556101ee366004610e50565b610996565b610206610201366004610e70565b610a14565b604051908152602001610139565b610247610222366004610e87565b600860209081525f938452604080852082529284528284209052825290205460ff1681565b6040519015158152602001610139565b610206610265366004610e70565b60036020525f908152604090205481565b610155610284366004610eb7565b50505050565b61020660015481565b6102476102a1366004610ef3565b600960209081525f948552604080862082529385528385208152918452828420909152825290205460ff1681565b6102e26102dd366004610e70565b610a33565b6040516101399190610f29565b6102066102fd366004610f3b565b610aca565b6002546101c8906001600160a01b031681565b600660209081525f9283526040808420909152908252902080546001820180546001600160a01b03909216929161034b90610f7a565b80601f016020809104026020016040519081016040528092919081815260200182805461037790610f7a565b80156103c25780601f10610399576101008083540402835291602001916103c2565b820191905f5260205f20905b8154815290600101906020018083116103a557829003601f168201915b5050506002909301549192505063ffffffff808216916401000000008104821691600160401b9091041685565b5f54604051631783efc360e01b815260048101849052602481018390526001600160a01b0390911690631783efc3906044015f604051808303815f87803b158015610438575f5ffd5b505af115801561044a573d5f5f3e3d5ffd5b505050505050565b5f838152600660209081526040808320858452909152902080546001600160a01b03166104bc5760405162461bcd60e51b8152602060048201526013602482015272141bdcdd08191bd95cc81b9bdd08195e1a5cdd606a1b60448201526064015b60405180910390fd5b335f908152600860209081526040808320878452825280832086845290915290205460ff16801561053b5760405162461bcd60e51b815260206004820152602360248201527f557365722068617320616c726561647920766f746564206f6e207468697320706044820152621bdcdd60ea1b60648201526084016104b3565b82156105885760018260020160048282829054906101000a900463ffffffff166105659190610fc6565b92506101000a81548163ffffffff021916908363ffffffff1602179055506105cb565b60018260020160088282829054906101000a900463ffffffff166105ac9190610fc6565b92506101000a81548163ffffffff021916908363ffffffff1602179055505b5050335f908152600860209081526040808320958352948152848220938252929092525020805460ff19166001179055565b600760209081525f9384526040808520825292845282842090528252902080546001820180546001600160a01b03909216929161034b90610f7a565b5f848152600660209081526040808320868452909152902080546001600160a01b03166106a85760405162461bcd60e51b815260206004820152601860248201527f4d61696e20506f737420646f6573206e6f74206578697374000000000000000060448201526064016104b3565b5f6040518060a00160405280336001600160a01b0316815260200185858080601f0160208091040260200160405190810160405280939291908181526020018383808284375f9201829052509385525050504263ffffffff1660208084019190915260408084018390526060909301829052898252600781528282208983528152828220600180845290825292909120835181546001600160a01b0319166001600160a01b039091161781559083015192935090918391908184019061076e9082611042565b50604082015160029091018054606084015160809094015163ffffffff908116600160401b0263ffffffff60401b199582166401000000000267ffffffffffffffff199093169190941617179290921617905550505050505050565b6002546001600160a01b031633146107f45760405162461bcd60e51b81526004016104b3906110fd565b5f5460405163366e997f60e11b81526001600160a01b0390911690636cdd32fe90610829908790879087908790600401611122565b5f604051808303815f87803b158015610840575f5ffd5b505af1158015610852573d5f5f3e3d5ffd5b5050505050505050565b5f6040518060a00160405280336001600160a01b0316815260200184848080601f0160208091040260200160405190810160405280939291908181526020018383808284375f92018290525093855250505063ffffffff421660208084019190915260408084018390526060909301829052878252600390522054909150806108e481611169565b5f878152600360209081526040808320849055600682528083208484528252909120855181546001600160a01b0319166001600160a01b039091161781559085015191935084925090600182019061093c9082611042565b50604082015160029091018054606084015160809094015163ffffffff908116600160401b0263ffffffff60401b199582166401000000000267ffffffffffffffff19909316919094161717929092161790555050505050565b6002546001600160a01b031633146109c05760405162461bcd60e51b81526004016104b3906110fd565b600280546001600160a01b0319166001600160a01b0383169081179091556040519081527fc815d89d975fdb1cd9acd263359f94e17450afcac27532c7872f6a752728a7299060200160405180910390a150565b60048181548110610a23575f80fd5b5f91825260209091200154905081565b60056020525f908152604090208054610a4b90610f7a565b80601f0160208091040260200160405190810160405280929190818152602001828054610a7790610f7a565b8015610ac25780601f10610a9957610100808354040283529160200191610ac2565b820191905f5260205f20905b815481529060010190602001808311610aa557829003601f168201915b505050505081565b6002545f906001600160a01b03163314610af65760405162461bcd60e51b81526004016104b3906110fd565b5f5f5f9054906101000a90046001600160a01b03166001600160a01b031663575185ed6040518163ffffffff1660e01b81526004016020604051808303815f875af1158015610b47573d5f5f3e3d5ffd5b505050506040513d601f19601f82011682018060405250810190610b6b9190611181565b5f818152600560205260409020909150610b86848683611198565b5060018054905f610b9683611169565b9091555050600480546001810182555f919091527f8a35acfbc15ff81a39ae7d344fd709f28e8600b4aa8c65c6b64bfe7fe36bd19b0181905590505b92915050565b5f5f60408385031215610be9575f5ffd5b50508035926020909101359150565b5f81518084528060208401602086015e5f602082860101526020601f19601f83011685010191505092915050565b6001600160a01b038616815260a0602082018190525f90610c4990830187610bf8565b63ffffffff9586166040840152938516606083015250921660809092019190915292915050565b80358015158114610c7f575f5ffd5b919050565b5f5f5f60608486031215610c96575f5ffd5b8335925060208401359150610cad60408501610c70565b90509250925092565b5f5f5f60608486031215610cc8575f5ffd5b505081359360208301359350604090920135919050565b5f5f83601f840112610cef575f5ffd5b50813567ffffffffffffffff811115610d06575f5ffd5b602083019150836020828501011115610d1d575f5ffd5b9250929050565b5f5f5f5f60608587031215610d37575f5ffd5b8435935060208501359250604085013567ffffffffffffffff811115610d5b575f5ffd5b610d6787828801610cdf565b95989497509550505050565b5f5f5f5f60608587031215610d86575f5ffd5b8435935060208501359250604085013567ffffffffffffffff811115610daa575f5ffd5b8501601f81018713610dba575f5ffd5b803567ffffffffffffffff811115610dd0575f5ffd5b8760208260051b8401011115610de4575f5ffd5b949793965060200194505050565b5f5f5f60408486031215610e04575f5ffd5b83359250602084013567ffffffffffffffff811115610e21575f5ffd5b610e2d86828701610cdf565b9497909650939450505050565b80356001600160a01b0381168114610c7f575f5ffd5b5f60208284031215610e60575f5ffd5b610e6982610e3a565b9392505050565b5f60208284031215610e80575f5ffd5b5035919050565b5f5f5f60608486031215610e99575f5ffd5b610ea284610e3a565b95602085013595506040909401359392505050565b5f5f5f5f60808587031215610eca575f5ffd5b843593506020850135925060408501359150610ee860608601610c70565b905092959194509250565b5f5f5f5f60808587031215610f06575f5ffd5b610f0f85610e3a565b966020860135965060408601359560600135945092505050565b602081525f610e696020830184610bf8565b5f5f60208385031215610f4c575f5ffd5b823567ffffffffffffffff811115610f62575f5ffd5b610f6e85828601610cdf565b90969095509350505050565b600181811c90821680610f8e57607f821691505b602082108103610fac57634e487b7160e01b5f52602260045260245ffd5b50919050565b634e487b7160e01b5f52601160045260245ffd5b63ffffffff8181168382160190811115610bd257610bd2610fb2565b634e487b7160e01b5f52604160045260245ffd5b601f82111561103d57805f5260205f20601f840160051c8101602085101561101b5750805b601f840160051c820191505b8181101561103a575f8155600101611027565b50505b505050565b815167ffffffffffffffff81111561105c5761105c610fe2565b6110708161106a8454610f7a565b84610ff6565b6020601f8211600181146110a2575f831561108b5750848201515b5f19600385901b1c1916600184901b17845561103a565b5f84815260208120601f198516915b828110156110d157878501518255602094850194600190920191016110b1565b50848210156110ee57868401515f19600387901b60f8161c191681555b50505050600190811b01905550565b6020808252600b908201526a139bdd08105b1b1bddd95960aa1b604082015260600190565b8481526020810184905260606040820181905281018290525f6001600160fb1b0383111561114e575f5ffd5b8260051b808560808501379190910160800195945050505050565b5f6001820161117a5761117a610fb2565b5060010190565b5f60208284031215611191575f5ffd5b5051919050565b67ffffffffffffffff8311156111b0576111b0610fe2565b6111c4836111be8354610f7a565b83610ff6565b5f601f8411600181146111f5575f85156111de5750838201355b5f19600387901b1c1916600186901b17835561103a565b5f83815260208120601f198716915b828110156112245786850135825560209485019460019092019101611204565b5086821015611240575f1960f88860031b161c19848701351681555b505060018560011b018355505050505056fea26469706673582212208d6d235014764105d0967a7ad4f92c54f8ba2d3e7ac0edafe34908ad29e94e9464736f6c634300081c0033","linkReferences":{}},"methodIdentifiers":{"addMember(uint256,uint256)":"1783efc3","admin()":"f851a440","changeAdmin(address)":"8f283970","createGroup(string)":"dc2ddcae","createMainPost(uint256,string)":"6cff15cc","createSubPost(uint256,uint256,string)":"66efb926","groupCounter()":"d24924fe","groupNames(uint256)":"d6271edf","groupPostCounters(uint256)":"bbff66f9","groupPosts(uint256,uint256)":"095c7f28","groups(uint256)":"96324bd4","postSubPosts(uint256,uint256,uint256)":"49d3a50a","removeMember(uint256,uint256,uint256[])":"6cdd32fe","semaphore()":"7b5d2534","userPostVotes(address,uint256,uint256)":"9db2cb82","userSubPostVotes(address,uint256,uint256,uint256)":"d4d59e83","voteOnPost(uint256,uint256,bool)":"46dbd6cd","voteOnSubPost(uint256,uint256,uint256,bool)":"c2d4ccc8"},"id":22}