{"abi":[{"type":"constructor","inputs":[{"name":"_semaphoreAddress","type":"address","internalType":"address"},{"name":"_ombuAdmin","type":"address","internalType":"address"}],"stateMutability":"nonpayable"},{"type":"function","name":"acceptGroupAdmin","inputs":[{"name":"_groupId","type":"uint256","internalType":"uint256"}],"outputs":[],"stateMutability":"nonpayable"},{"type":"function","name":"addMember","inputs":[{"name":"_groupId","type":"uint256","internalType":"uint256"},{"name":"_identityCommitment","type":"uint256","internalType":"uint256"}],"outputs":[],"stateMutability":"nonpayable"},{"type":"function","name":"admin","inputs":[],"outputs":[{"name":"","type":"address","internalType":"address"}],"stateMutability":"view"},{"type":"function","name":"changeAdmin","inputs":[{"name":"_newAdmin","type":"address","internalType":"address"}],"outputs":[],"stateMutability":"nonpayable"},{"type":"function","name":"changeGroupAdmin","inputs":[{"name":"_groupId","type":"uint256","internalType":"uint256"},{"name":"_newAdmin","type":"address","internalType":"address"}],"outputs":[],"stateMutability":"nonpayable"},{"type":"function","name":"createGroup","inputs":[{"name":"_name","type":"string","internalType":"string"}],"outputs":[{"name":"","type":"uint256","internalType":"uint256"}],"stateMutability":"nonpayable"},{"type":"function","name":"createMainPost","inputs":[{"name":"_groupId","type":"uint256","internalType":"uint256"},{"name":"_content","type":"string","internalType":"string"}],"outputs":[],"stateMutability":"nonpayable"},{"type":"function","name":"createSubPost","inputs":[{"name":"_groupId","type":"uint256","internalType":"uint256"},{"name":"_mainPostId","type":"uint256","internalType":"uint256"},{"name":"_content","type":"string","internalType":"string"}],"outputs":[],"stateMutability":"nonpayable"},{"type":"function","name":"deleteVoteOnPost","inputs":[{"name":"_groupId","type":"uint256","internalType":"uint256"},{"name":"_postId","type":"uint256","internalType":"uint256"},{"name":"_isUpvote","type":"bool","internalType":"bool"}],"outputs":[],"stateMutability":"nonpayable"},{"type":"function","name":"deleteVoteOnSubPost","inputs":[{"name":"_groupId","type":"uint256","internalType":"uint256"},{"name":"_postId","type":"uint256","internalType":"uint256"},{"name":"_subPostId","type":"uint256","internalType":"uint256"},{"name":"_isUpvote","type":"bool","internalType":"bool"}],"outputs":[],"stateMutability":"nonpayable"},{"type":"function","name":"groupCounter","inputs":[],"outputs":[{"name":"","type":"uint256","internalType":"uint256"}],"stateMutability":"view"},{"type":"function","name":"groupNames","inputs":[{"name":"groupId","type":"uint256","internalType":"uint256"}],"outputs":[{"name":"name","type":"string","internalType":"string"}],"stateMutability":"view"},{"type":"function","name":"groupPostCounters","inputs":[{"name":"groupId","type":"uint256","internalType":"uint256"}],"outputs":[{"name":"postIDCounter","type":"uint256","internalType":"uint256"}],"stateMutability":"view"},{"type":"function","name":"groupPosts","inputs":[{"name":"groupId","type":"uint256","internalType":"uint256"},{"name":"ombuPostId","type":"uint256","internalType":"uint256"}],"outputs":[{"name":"author","type":"address","internalType":"address"},{"name":"content","type":"string","internalType":"string"},{"name":"timestamp","type":"uint32","internalType":"uint32"},{"name":"upvotes","type":"uint32","internalType":"uint32"},{"name":"downvotes","type":"uint32","internalType":"uint32"}],"stateMutability":"view"},{"type":"function","name":"groups","inputs":[{"name":"","type":"uint256","internalType":"uint256"}],"outputs":[{"name":"","type":"uint256","internalType":"uint256"}],"stateMutability":"view"},{"type":"function","name":"isGroupMember","inputs":[{"name":"_groupId","type":"uint256","internalType":"uint256"},{"name":"_identityCommitment","type":"uint256","internalType":"uint256"}],"outputs":[{"name":"","type":"bool","internalType":"bool"}],"stateMutability":"view"},{"type":"function","name":"postSubPosts","inputs":[{"name":"groupId","type":"uint256","internalType":"uint256"},{"name":"ombuPostId","type":"uint256","internalType":"uint256"},{"name":"subPostId","type":"uint256","internalType":"uint256"}],"outputs":[{"name":"author","type":"address","internalType":"address"},{"name":"content","type":"string","internalType":"string"},{"name":"timestamp","type":"uint32","internalType":"uint32"},{"name":"upvotes","type":"uint32","internalType":"uint32"},{"name":"downvotes","type":"uint32","internalType":"uint32"}],"stateMutability":"view"},{"type":"function","name":"removeMember","inputs":[{"name":"_groupId","type":"uint256","internalType":"uint256"},{"name":"_identityCommitment","type":"uint256","internalType":"uint256"},{"name":"_merkleProofSiblings","type":"uint256[]","internalType":"uint256[]"}],"outputs":[],"stateMutability":"nonpayable"},{"type":"function","name":"semaphore","inputs":[],"outputs":[{"name":"","type":"address","internalType":"contract ISemaphore"}],"stateMutability":"view"},{"type":"function","name":"sendFeedback","inputs":[{"name":"_groupId","type":"uint256","internalType":"uint256"},{"name":"_merkleTreeDepth","type":"uint256","internalType":"uint256"},{"name":"_merkleTreeRoot","type":"uint256","internalType":"uint256"},{"name":"_nullifier","type":"uint256","internalType":"uint256"},{"name":"_feedback","type":"uint256","internalType":"uint256"},{"name":"_content","type":"string","internalType":"string"},{"name":"_points","type":"uint256[8]","internalType":"uint256[8]"}],"outputs":[],"stateMutability":"nonpayable"},{"type":"function","name":"userPostVotes","inputs":[{"name":"user","type":"address","internalType":"address"},{"name":"groupId","type":"uint256","internalType":"uint256"},{"name":"postId","type":"uint256","internalType":"uint256"}],"outputs":[{"name":"hasVoted","type":"bool","internalType":"bool"}],"stateMutability":"view"},{"type":"function","name":"userSubPostVotes","inputs":[{"name":"user","type":"address","internalType":"address"},{"name":"groupId","type":"uint256","internalType":"uint256"},{"name":"postId","type":"uint256","internalType":"uint256"},{"name":"subPostId","type":"uint256","internalType":"uint256"}],"outputs":[{"name":"hasVoted","type":"bool","internalType":"bool"}],"stateMutability":"view"},{"type":"function","name":"voteOnPost","inputs":[{"name":"_groupId","type":"uint256","internalType":"uint256"},{"name":"_postId","type":"uint256","internalType":"uint256"},{"name":"_isUpvote","type":"bool","internalType":"bool"}],"outputs":[],"stateMutability":"nonpayable"},{"type":"function","name":"voteOnSubPost","inputs":[{"name":"_groupId","type":"uint256","internalType":"uint256"},{"name":"_postId","type":"uint256","internalType":"uint256"},{"name":"_subPostId","type":"uint256","internalType":"uint256"},{"name":"_isUpvote","type":"bool","internalType":"bool"}],"outputs":[],"stateMutability":"nonpayable"},{"type":"event","name":"change_Admin","inputs":[{"name":"_newAdmin","type":"address","indexed":false,"internalType":"address"}],"anonymous":false}],"bytecode":{"object":"0x608060405234801561000f575f5ffd5b50604051611fd4380380611fd483398101604081905261002e91610162565b5f80546001600160a01b038481166001600160a01b0319928316811784556002805490931633179092556040516302e1f9db60e51b81529084166004820152635c3f3b60906024016020604051808303815f875af1158015610092573d5f5f3e3d5ffd5b505050506040513d601f19601f820116820180604052508101906100b69190610193565b600180549192505f6100c7836101aa565b909155505060048054600181019091557f8a35acfbc15ff81a39ae7d344fd709f28e8600b4aa8c65c6b64bfe7fe36bd19b01819055604080518082018252601081526f24b73b34b9b4b136329023b0b93232b760811b6020828101919091525f8481526005909152919091209061013e9082610266565b50505050610320565b80516001600160a01b038116811461015d575f5ffd5b919050565b5f5f60408385031215610173575f5ffd5b61017c83610147565b915061018a60208401610147565b90509250929050565b5f602082840312156101a3575f5ffd5b5051919050565b5f600182016101c757634e487b7160e01b5f52601160045260245ffd5b5060010190565b634e487b7160e01b5f52604160045260245ffd5b600181811c908216806101f657607f821691505b60208210810361021457634e487b7160e01b5f52602260045260245ffd5b50919050565b601f82111561026157805f5260205f20601f840160051c8101602085101561023f5750805b601f840160051c820191505b8181101561025e575f815560010161024b565b50505b505050565b81516001600160401b0381111561027f5761027f6101ce565b6102938161028d84546101e2565b8461021a565b6020601f8211600181146102c5575f83156102ae5750848201515b5f19600385901b1c1916600184901b17845561025e565b5f84815260208120601f198516915b828110156102f457878501518255602094850194600190920191016102d4565b508482101561031157868401515f19600387901b60f8161c191681555b50505050600190811b01905550565b611ca78061032d5f395ff3fe608060405234801561000f575f5ffd5b5060043610610153575f3560e01c80638f283970116100bf578063d24924fe11610079578063d24924fe1461032a578063d4d59e8314610333578063d6271edf1461036f578063da3cda521461038f578063dc2ddcae146103a2578063f851a440146103b5575f5ffd5b80638f2839701461026e5780638f89921a1461028157806396324bd4146102a45780639db2cb82146102c5578063bbff66f9146102f8578063c2d4ccc814610317575f5ffd5b806346dbd6cd1161011057806346dbd6cd146101e557806349d3a50a146101f857806366efb9261461020b5780636cdd32fe1461021e5780636cff15cc146102315780637b5d253414610244575f5ffd5b8063095c7f28146101575780630a3d1f8a146101845780630b279171146101995780631783efc3146101ac57806338e25b59146101bf57806343ec86ed146101d2575b5f5ffd5b61016a61016536600461149c565b6103c8565b60405161017b9594939291906114ea565b60405180910390f35b610197610192366004611544565b6104a2565b005b6101976101a736600461157a565b610636565b6101976101ba36600461149c565b6107ef565b6101976101cd3660046115fd565b610853565b6101976101e036600461169e565b610a47565b6101976101f3366004611544565b610a7f565b61016a6102063660046116c8565b610c25565b6101976102193660046116f1565b610c61565b61019761022c366004611740565b610df2565b61019761023f3660046117bf565b610e84565b5f54610256906001600160a01b031681565b6040516001600160a01b03909116815260200161017b565b61019761027c366004611807565b610fbe565b61029461028f36600461149c565b61103c565b604051901515815260200161017b565b6102b76102b2366004611820565b6110b7565b60405190815260200161017b565b6102946102d3366004611837565b600860209081525f938452604080852082529284528284209052825290205460ff1681565b6102b7610306366004611820565b60036020525f908152604090205481565b61019761032536600461157a565b6110d6565b6102b760015481565b610294610341366004611867565b600960209081525f948552604080862082529385528385208152918452828420909152825290205460ff1681565b61038261037d366004611820565b61129e565b60405161017b919061189d565b61019761039d366004611820565b611335565b6102b76103b03660046118af565b611390565b600254610256906001600160a01b031681565b600660209081525f9283526040808420909152908252902080546001820180546001600160a01b0390921692916103fe906118ee565b80601f016020809104026020016040519081016040528092919081815260200182805461042a906118ee565b80156104755780601f1061044c57610100808354040283529160200191610475565b820191905f5260205f20905b81548152906001019060200180831161045857829003601f168201915b5050506002909301549192505063ffffffff808216916401000000008104821691600160401b9091041685565b5f838152600660209081526040808320858452909152902080546001600160a01b031661050c5760405162461bcd60e51b8152602060048201526013602482015272141bdcdd08191bd95cc81b9bdd08195e1a5cdd606a1b60448201526064015b60405180910390fd5b335f908152600860209081526040808320878452825280832086845290915290205460ff168061057e5760405162461bcd60e51b815260206004820152601f60248201527f5573657220686173206e6f7420766f746564206f6e207468697320706f7374006044820152606401610503565b82156105c857600282018054640100000000900463ffffffff169060046105a48361193a565b91906101000a81548163ffffffff021916908363ffffffff16021790555050610607565b600282018054600160401b900463ffffffff169060086105e78361193a565b91906101000a81548163ffffffff021916908363ffffffff160217905550505b5050335f908152600860209081526040808320958352948152848220938252929092525020805460ff19169055565b5f8481526007602090815260408083208684528252808320858452909152902080546001600160a01b03166106a65760405162461bcd60e51b815260206004820152601660248201527514dd58941bdcdd08191bd95cc81b9bdd08195e1a5cdd60521b6044820152606401610503565b335f9081526009602090815260408083208884528252808320878452825280832086845290915290205460ff168061072b5760405162461bcd60e51b815260206004820152602260248201527f5573657220686173206e6f7420766f746564206f6e207468697320737562706f6044820152611cdd60f21b6064820152608401610503565b821561077557600282018054640100000000900463ffffffff169060046107518361193a565b91906101000a81548163ffffffff021916908363ffffffff160217905550506107b4565b600282018054600160401b900463ffffffff169060086107948361193a565b91906101000a81548163ffffffff021916908363ffffffff160217905550505b5050335f9081526009602090815260408083209683529581528582209482529384528481209281529190925291909120805460ff1916905550565b5f54604051631783efc360e01b815260048101849052602481018390526001600160a01b0390911690631783efc3906044015b5f604051808303815f87803b158015610839575f5ffd5b505af115801561084b573d5f5f3e3d5ffd5b505050505050565b5f6040518060c001604052808981526020018881526020018781526020018681526020018a81526020018360088060200260405190810160405280929190826008602002808284375f92018290525092909352505460405163d0d898dd60e01b81529293506001600160a01b03169163d0d898dd91506108d9908c908590600401611958565b5f604051808303815f87803b1580156108f0575f5ffd5b505af1158015610902573d5f5f3e3d5ffd5b505050505f6040518060a0016040528060016001600160a01b0316815260200186868080601f0160208091040260200160405190810160405280939291908181526020018383808284375f92018290525093855250505063ffffffff4216602080840191909152604080840183905260609093018290528d82526003905220549091508061098f816119c6565b5f8d8152600360209081526040808320849055600682528083208484528252909120855181546001600160a01b0319166001600160a01b03909116178155908501519193508492509060018201906109e79082611a3b565b50604082015160029091018054606084015160809094015163ffffffff908116600160401b0263ffffffff60401b199582166401000000000267ffffffffffffffff19909316919094161717929092161790555050505050505050505050565b5f54604051632b47741360e11b8152600481018490526001600160a01b0383811660248301529091169063568ee82690604401610822565b5f838152600660209081526040808320858452909152902080546001600160a01b0316610ae45760405162461bcd60e51b8152602060048201526013602482015272141bdcdd08191bd95cc81b9bdd08195e1a5cdd606a1b6044820152606401610503565b335f908152600860209081526040808320878452825280832086845290915290205460ff168015610b635760405162461bcd60e51b815260206004820152602360248201527f557365722068617320616c726561647920766f746564206f6e207468697320706044820152621bdcdd60ea1b6064820152608401610503565b8215610bb05760018260020160048282829054906101000a900463ffffffff16610b8d9190611af6565b92506101000a81548163ffffffff021916908363ffffffff160217905550610bf3565b60018260020160088282829054906101000a900463ffffffff16610bd49190611af6565b92506101000a81548163ffffffff021916908363ffffffff1602179055505b5050335f908152600860209081526040808320958352948152848220938252929092525020805460ff19166001179055565b600760209081525f9384526040808520825292845282842090528252902080546001820180546001600160a01b0390921692916103fe906118ee565b5f848152600660209081526040808320868452909152902080546001600160a01b0316610cd05760405162461bcd60e51b815260206004820152601860248201527f4d61696e20506f737420646f6573206e6f7420657869737400000000000000006044820152606401610503565b5f6040518060a00160405280336001600160a01b0316815260200185858080601f0160208091040260200160405190810160405280939291908181526020018383808284375f9201829052509385525050504263ffffffff1660208084019190915260408084018390526060909301829052898252600781528282208983528152828220600180845290825292909120835181546001600160a01b0319166001600160a01b0390911617815590830151929350909183919081840190610d969082611a3b565b50604082015160029091018054606084015160809094015163ffffffff908116600160401b0263ffffffff60401b199582166401000000000267ffffffffffffffff199093169190941617179290921617905550505050505050565b6002546001600160a01b03163314610e1c5760405162461bcd60e51b815260040161050390611b12565b5f5460405163366e997f60e11b81526001600160a01b0390911690636cdd32fe90610e51908790879087908790600401611b37565b5f604051808303815f87803b158015610e68575f5ffd5b505af1158015610e7a573d5f5f3e3d5ffd5b5050505050505050565b5f6040518060a00160405280336001600160a01b0316815260200184848080601f0160208091040260200160405190810160405280939291908181526020018383808284375f92018290525093855250505063ffffffff42166020808401919091526040808401839052606090930182905287825260039052205490915080610f0c816119c6565b5f878152600360209081526040808320849055600682528083208484528252909120855181546001600160a01b0319166001600160a01b0390911617815590850151919350849250906001820190610f649082611a3b565b50604082015160029091018054606084015160809094015163ffffffff908116600160401b0263ffffffff60401b199582166401000000000267ffffffffffffffff19909316919094161717929092161790555050505050565b6002546001600160a01b03163314610fe85760405162461bcd60e51b815260040161050390611b12565b600280546001600160a01b0319166001600160a01b0383169081179091556040519081527fc815d89d975fdb1cd9acd263359f94e17450afcac27532c7872f6a752728a7299060200160405180910390a150565b5f8054604051632414275160e21b815260048101859052602481018490526001600160a01b03909116906390509d4490604401602060405180830381865afa15801561108a573d5f5f3e3d5ffd5b505050506040513d601f19601f820116820180604052508101906110ae9190611b7e565b90505b92915050565b600481815481106110c6575f80fd5b5f91825260209091200154905081565b5f8481526007602090815260408083208684528252808320858452909152902080546001600160a01b03166111465760405162461bcd60e51b815260206004820152601660248201527514dd58941bdcdd08191bd95cc81b9bdd08195e1a5cdd60521b6044820152606401610503565b335f9081526009602090815260408083208884528252808320878452825280832086845290915290205460ff1680156111d05760405162461bcd60e51b815260206004820152602660248201527f557365722068617320616c726561647920766f746564206f6e207468697320736044820152651d589c1bdcdd60d21b6064820152608401610503565b821561121d5760018260020160048282829054906101000a900463ffffffff166111fa9190611af6565b92506101000a81548163ffffffff021916908363ffffffff160217905550611260565b60018260020160088282829054906101000a900463ffffffff166112419190611af6565b92506101000a81548163ffffffff021916908363ffffffff1602179055505b5050335f9081526009602090815260408083209683529581528582209482529384528481209281529190925291909120805460ff1916600117905550565b60056020525f9081526040902080546112b6906118ee565b80601f01602080910402602001604051908101604052809291908181526020018280546112e2906118ee565b801561132d5780601f106113045761010080835404028352916020019161132d565b820191905f5260205f20905b81548152906001019060200180831161131057829003601f168201915b505050505081565b5f54604051636d1e6d2960e11b8152600481018390526001600160a01b039091169063da3cda52906024015f604051808303815f87803b158015611377575f5ffd5b505af1158015611389573d5f5f3e3d5ffd5b5050505050565b6002545f906001600160a01b031633146113bc5760405162461bcd60e51b815260040161050390611b12565b5f5f5f9054906101000a90046001600160a01b03166001600160a01b031663575185ed6040518163ffffffff1660e01b81526004016020604051808303815f875af115801561140d573d5f5f3e3d5ffd5b505050506040513d601f19601f820116820180604052508101906114319190611ba0565b5f81815260056020526040902090915061144c848683611bb7565b5060018054905f61145c836119c6565b9091555050600480546001810182555f919091527f8a35acfbc15ff81a39ae7d344fd709f28e8600b4aa8c65c6b64bfe7fe36bd19b018190559392505050565b5f5f604083850312156114ad575f5ffd5b50508035926020909101359150565b5f81518084528060208401602086015e5f602082860101526020601f19601f83011685010191505092915050565b6001600160a01b038616815260a0602082018190525f9061150d908301876114bc565b63ffffffff9586166040840152938516606083015250921660809092019190915292915050565b8015158114611541575f5ffd5b50565b5f5f5f60608486031215611556575f5ffd5b8335925060208401359150604084013561156f81611534565b809150509250925092565b5f5f5f5f6080858703121561158d575f5ffd5b84359350602085013592506040850135915060608501356115ad81611534565b939692955090935050565b5f5f83601f8401126115c8575f5ffd5b50813567ffffffffffffffff8111156115df575f5ffd5b6020830191508360208285010111156115f6575f5ffd5b9250929050565b5f5f5f5f5f5f5f5f6101c0898b031215611615575f5ffd5b883597506020890135965060408901359550606089013594506080890135935060a089013567ffffffffffffffff81111561164e575f5ffd5b61165a8b828c016115b8565b9094509250506101c089018a1015611670575f5ffd5b60c0890190509295985092959890939650565b80356001600160a01b0381168114611699575f5ffd5b919050565b5f5f604083850312156116af575f5ffd5b823591506116bf60208401611683565b90509250929050565b5f5f5f606084860312156116da575f5ffd5b505081359360208301359350604090920135919050565b5f5f5f5f60608587031215611704575f5ffd5b8435935060208501359250604085013567ffffffffffffffff811115611728575f5ffd5b611734878288016115b8565b95989497509550505050565b5f5f5f5f60608587031215611753575f5ffd5b8435935060208501359250604085013567ffffffffffffffff811115611777575f5ffd5b8501601f81018713611787575f5ffd5b803567ffffffffffffffff81111561179d575f5ffd5b8760208260051b84010111156117b1575f5ffd5b949793965060200194505050565b5f5f5f604084860312156117d1575f5ffd5b83359250602084013567ffffffffffffffff8111156117ee575f5ffd5b6117fa868287016115b8565b9497909650939450505050565b5f60208284031215611817575f5ffd5b6110ae82611683565b5f60208284031215611830575f5ffd5b5035919050565b5f5f5f60608486031215611849575f5ffd5b61185284611683565b95602085013595506040909401359392505050565b5f5f5f5f6080858703121561187a575f5ffd5b61188385611683565b966020860135965060408601359560600135945092505050565b602081525f6110ae60208301846114bc565b5f5f602083850312156118c0575f5ffd5b823567ffffffffffffffff8111156118d6575f5ffd5b6118e2858286016115b8565b90969095509350505050565b600181811c9082168061190257607f821691505b60208210810361192057634e487b7160e01b5f52602260045260245ffd5b50919050565b634e487b7160e01b5f52601160045260245ffd5b5f63ffffffff82168061194f5761194f611926565b5f190192915050565b5f6101c08201905083825282516020830152602083015160408301526040830151606083015260608301516080830152608083015160a083015260a083015160c083015f5b60088110156119bc57825182526020928301929091019060010161199d565b5050509392505050565b5f600182016119d7576119d7611926565b5060010190565b634e487b7160e01b5f52604160045260245ffd5b601f821115611a3657805f5260205f20601f840160051c81016020851015611a175750805b601f840160051c820191505b81811015611389575f8155600101611a23565b505050565b815167ffffffffffffffff811115611a5557611a556119de565b611a6981611a6384546118ee565b846119f2565b6020601f821160018114611a9b575f8315611a845750848201515b5f19600385901b1c1916600184901b178455611389565b5f84815260208120601f198516915b82811015611aca5787850151825560209485019460019092019101611aaa565b5084821015611ae757868401515f19600387901b60f8161c191681555b50505050600190811b01905550565b63ffffffff81811683821601908111156110b1576110b1611926565b6020808252600b908201526a139bdd08105b1b1bddd95960aa1b604082015260600190565b8481526020810184905260606040820181905281018290525f6001600160fb1b03831115611b63575f5ffd5b8260051b808560808501379190910160800195945050505050565b5f60208284031215611b8e575f5ffd5b8151611b9981611534565b9392505050565b5f60208284031215611bb0575f5ffd5b5051919050565b67ffffffffffffffff831115611bcf57611bcf6119de565b611be383611bdd83546118ee565b836119f2565b5f601f841160018114611c14575f8515611bfd5750838201355b5f19600387901b1c1916600186901b178355611389565b5f83815260208120601f198716915b82811015611c435786850135825560209485019460019092019101611c23565b5086821015611c5f575f1960f88860031b161c19848701351681555b505060018560011b018355505050505056fea2646970667358221220772b2747dfd39e87fb18ab681b7aa15f3bda943c703a2b95c4abe9683dc1295f64736f6c634300081c0033","linkReferences":{}},"methodIdentifiers":{"acceptGroupAdmin(uint256)":"da3cda52","addMember(uint256,uint256)":"1783efc3","admin()":"f851a440","changeAdmin(address)":"8f283970","changeGroupAdmin(uint256,address)":"43ec86ed","createGroup(string)":"dc2ddcae","createMainPost(uint256,string)":"6cff15cc","createSubPost(uint256,uint256,string)":"66efb926","deleteVoteOnPost(uint256,uint256,bool)":"0a3d1f8a","deleteVoteOnSubPost(uint256,uint256,uint256,bool)":"0b279171","groupCounter()":"d24924fe","groupNames(uint256)":"d6271edf","groupPostCounters(uint256)":"bbff66f9","groupPosts(uint256,uint256)":"095c7f28","groups(uint256)":"96324bd4","isGroupMember(uint256,uint256)":"8f89921a","postSubPosts(uint256,uint256,uint256)":"49d3a50a","removeMember(uint256,uint256,uint256[])":"6cdd32fe","semaphore()":"7b5d2534","sendFeedback(uint256,uint256,uint256,uint256,uint256,string,uint256[8])":"38e25b59","userPostVotes(address,uint256,uint256)":"9db2cb82","userSubPostVotes(address,uint256,uint256,uint256)":"d4d59e83","voteOnPost(uint256,uint256,bool)":"46dbd6cd","voteOnSubPost(uint256,uint256,uint256,bool)":"c2d4ccc8"},"id":22}