{"abi":[{"type":"constructor","inputs":[{"name":"_semaphoreAddress","type":"address","internalType":"address"}],"stateMutability":"nonpayable"},{"type":"function","name":"acceptGroupAdmin","inputs":[{"name":"_groupId","type":"uint256","internalType":"uint256"}],"outputs":[],"stateMutability":"nonpayable"},{"type":"function","name":"addMember","inputs":[{"name":"_groupId","type":"uint256","internalType":"uint256"},{"name":"_identityCommitment","type":"uint256","internalType":"uint256"}],"outputs":[],"stateMutability":"nonpayable"},{"type":"function","name":"admin","inputs":[],"outputs":[{"name":"","type":"address","internalType":"address"}],"stateMutability":"view"},{"type":"function","name":"changeAdmin","inputs":[{"name":"_newAdmin","type":"address","internalType":"address"}],"outputs":[],"stateMutability":"nonpayable"},{"type":"function","name":"changeGroupAdmin","inputs":[{"name":"_groupId","type":"uint256","internalType":"uint256"},{"name":"_newAdmin","type":"address","internalType":"address"}],"outputs":[],"stateMutability":"nonpayable"},{"type":"function","name":"createGroup","inputs":[{"name":"_name","type":"string","internalType":"string"}],"outputs":[{"name":"","type":"uint256","internalType":"uint256"}],"stateMutability":"nonpayable"},{"type":"function","name":"createMainPost","inputs":[{"name":"_groupId","type":"uint256","internalType":"uint256"},{"name":"_merkleTreeDepth","type":"uint256","internalType":"uint256"},{"name":"_merkleTreeRoot","type":"uint256","internalType":"uint256"},{"name":"_nullifier","type":"uint256","internalType":"uint256"},{"name":"_feedback","type":"uint256","internalType":"uint256"},{"name":"_content","type":"string","internalType":"string"},{"name":"_points","type":"uint256[8]","internalType":"uint256[8]"}],"outputs":[],"stateMutability":"nonpayable"},{"type":"function","name":"createSubPost","inputs":[{"name":"_groupId","type":"uint256","internalType":"uint256"},{"name":"_mainPostId","type":"uint256","internalType":"uint256"},{"name":"_merkleTreeDepth","type":"uint256","internalType":"uint256"},{"name":"_merkleTreeRoot","type":"uint256","internalType":"uint256"},{"name":"_nullifier","type":"uint256","internalType":"uint256"},{"name":"_feedback","type":"uint256","internalType":"uint256"},{"name":"_content","type":"string","internalType":"string"},{"name":"_points","type":"uint256[8]","internalType":"uint256[8]"}],"outputs":[],"stateMutability":"nonpayable"},{"type":"function","name":"deleteVoteOnPost","inputs":[{"name":"_groupId","type":"uint256","internalType":"uint256"},{"name":"_postId","type":"uint256","internalType":"uint256"},{"name":"_isUpvote","type":"bool","internalType":"bool"},{"name":"_identityCommitment","type":"uint256","internalType":"uint256"}],"outputs":[],"stateMutability":"nonpayable"},{"type":"function","name":"deleteVoteOnSubPost","inputs":[{"name":"_groupId","type":"uint256","internalType":"uint256"},{"name":"_postId","type":"uint256","internalType":"uint256"},{"name":"_subPostId","type":"uint256","internalType":"uint256"},{"name":"_isUpvote","type":"bool","internalType":"bool"},{"name":"_identityCommitment","type":"uint256","internalType":"uint256"}],"outputs":[],"stateMutability":"nonpayable"},{"type":"function","name":"groupCounter","inputs":[],"outputs":[{"name":"","type":"uint256","internalType":"uint256"}],"stateMutability":"view"},{"type":"function","name":"groupNames","inputs":[{"name":"groupId","type":"uint256","internalType":"uint256"}],"outputs":[{"name":"name","type":"string","internalType":"string"}],"stateMutability":"view"},{"type":"function","name":"groupPostCounters","inputs":[{"name":"groupId","type":"uint256","internalType":"uint256"}],"outputs":[{"name":"postIDCounter","type":"uint256","internalType":"uint256"}],"stateMutability":"view"},{"type":"function","name":"groupPosts","inputs":[{"name":"groupId","type":"uint256","internalType":"uint256"},{"name":"ombuPostId","type":"uint256","internalType":"uint256"}],"outputs":[{"name":"content","type":"string","internalType":"string"},{"name":"timestamp","type":"uint32","internalType":"uint32"},{"name":"upvotes","type":"uint32","internalType":"uint32"},{"name":"downvotes","type":"uint32","internalType":"uint32"}],"stateMutability":"view"},{"type":"function","name":"groups","inputs":[{"name":"","type":"uint256","internalType":"uint256"}],"outputs":[{"name":"","type":"uint256","internalType":"uint256"}],"stateMutability":"view"},{"type":"function","name":"isGroupMember","inputs":[{"name":"_groupId","type":"uint256","internalType":"uint256"},{"name":"_identityCommitment","type":"uint256","internalType":"uint256"}],"outputs":[{"name":"","type":"bool","internalType":"bool"}],"stateMutability":"view"},{"type":"function","name":"postSubPosts","inputs":[{"name":"groupId","type":"uint256","internalType":"uint256"},{"name":"ombuPostId","type":"uint256","internalType":"uint256"},{"name":"subPostId","type":"uint256","internalType":"uint256"}],"outputs":[{"name":"content","type":"string","internalType":"string"},{"name":"timestamp","type":"uint32","internalType":"uint32"},{"name":"upvotes","type":"uint32","internalType":"uint32"},{"name":"downvotes","type":"uint32","internalType":"uint32"}],"stateMutability":"view"},{"type":"function","name":"removeMember","inputs":[{"name":"_groupId","type":"uint256","internalType":"uint256"},{"name":"_identityCommitment","type":"uint256","internalType":"uint256"},{"name":"_merkleProofSiblings","type":"uint256[]","internalType":"uint256[]"}],"outputs":[],"stateMutability":"nonpayable"},{"type":"function","name":"semaphore","inputs":[],"outputs":[{"name":"","type":"address","internalType":"contract ISemaphore"}],"stateMutability":"view"},{"type":"function","name":"userPostVotes","inputs":[{"name":"user","type":"address","internalType":"address"},{"name":"groupId","type":"uint256","internalType":"uint256"},{"name":"postId","type":"uint256","internalType":"uint256"}],"outputs":[{"name":"hasVoted","type":"bool","internalType":"bool"}],"stateMutability":"view"},{"type":"function","name":"userSubPostVotes","inputs":[{"name":"user","type":"address","internalType":"address"},{"name":"groupId","type":"uint256","internalType":"uint256"},{"name":"postId","type":"uint256","internalType":"uint256"},{"name":"subPostId","type":"uint256","internalType":"uint256"}],"outputs":[{"name":"hasVoted","type":"bool","internalType":"bool"}],"stateMutability":"view"},{"type":"function","name":"voteOnPost","inputs":[{"name":"_groupId","type":"uint256","internalType":"uint256"},{"name":"_postId","type":"uint256","internalType":"uint256"},{"name":"_isUpvote","type":"bool","internalType":"bool"},{"name":"_identityCommitment","type":"uint256","internalType":"uint256"}],"outputs":[],"stateMutability":"nonpayable"},{"type":"function","name":"voteOnSubPost","inputs":[{"name":"_groupId","type":"uint256","internalType":"uint256"},{"name":"_postId","type":"uint256","internalType":"uint256"},{"name":"_subPostId","type":"uint256","internalType":"uint256"},{"name":"_isUpvote","type":"bool","internalType":"bool"},{"name":"_identityCommitment","type":"uint256","internalType":"uint256"}],"outputs":[],"stateMutability":"nonpayable"},{"type":"event","name":"change_Admin","inputs":[{"name":"_newAdmin","type":"address","indexed":false,"internalType":"address"}],"anonymous":false}],"bytecode":{"object":"0x608060405234801561000f575f5ffd5b506040516120df3803806120df83398101604081905261002e91610145565b5f80546001600160a01b0383166001600160a01b0319918216811783556002805490921633179091556040805163575185ed60e01b8152905163575185ed91600480820192602092909190829003018187875af1158015610091573d5f5f3e3d5ffd5b505050506040513d601f19601f820116820180604052508101906100b59190610172565b600180549192505f6100c683610189565b909155505060048054600181019091557f8a35acfbc15ff81a39ae7d344fd709f28e8600b4aa8c65c6b64bfe7fe36bd19b01819055604080518082018252601081526f24b73b34b9b4b136329023b0b93232b760811b6020828101919091525f8481526005909152919091209061013d9082610245565b5050506102ff565b5f60208284031215610155575f5ffd5b81516001600160a01b038116811461016b575f5ffd5b9392505050565b5f60208284031215610182575f5ffd5b5051919050565b5f600182016101a657634e487b7160e01b5f52601160045260245ffd5b5060010190565b634e487b7160e01b5f52604160045260245ffd5b600181811c908216806101d557607f821691505b6020821081036101f357634e487b7160e01b5f52602260045260245ffd5b50919050565b601f82111561024057805f5260205f20601f840160051c8101602085101561021e5750805b601f840160051c820191505b8181101561023d575f815560010161022a565b50505b505050565b81516001600160401b0381111561025e5761025e6101ad565b6102728161026c84546101c1565b846101f9565b6020601f8211600181146102a4575f831561028d5750848201515b5f19600385901b1c1916600184901b17845561023d565b5f84815260208120601f198516915b828110156102d357878501518255602094850194600190920191016102b3565b50848210156102f057868401515f19600387901b60f8161c191681555b50505050600190811b01905550565b611dd38061030c5f395ff3fe608060405234801561000f575f5ffd5b5060043610610148575f3560e01c8063913975da116100bf578063d24924fe11610079578063d24924fe1461030b578063d4d59e8314610314578063d6271edf14610350578063da3cda5214610370578063dc2ddcae14610383578063f851a44014610396575f5ffd5b8063913975da1461025f57806396324bd4146102725780639db2cb8214610293578063a6ee62d2146102c6578063bbff66f9146102d9578063be0d93eb146102f8575f5ffd5b80636cdd32fe116101105780636cdd32fe146101c65780637627415a146101d95780637b5d2534146101ec5780638b72b3d3146102165780638f283970146102295780638f89921a1461023c575f5ffd5b8063095c7f281461014c5780631783efc31461017857806343ec86ed1461018d57806349d3a50a146101a05780635fb620fb146101b3575b5f5ffd5b61015f61015a3660046115b5565b6103a9565b60405161016f9493929190611603565b60405180910390f35b61018b6101863660046115b5565b610471565b005b61018b61019b366004611656565b6104d5565b61015f6101ae366004611680565b61050d565b61018b6101c13660046116b9565b610538565b61018b6101d43660046116fe565b610792565b61018b6101e736600461177d565b610802565b5f546101fe906001600160a01b031681565b6040516001600160a01b03909116815260200161016f565b61018b61022436600461180f565b610a3d565b61018b610237366004611897565b610c54565b61024f61024a3660046115b5565b610cb0565b604051901515815260200161016f565b61018b61026d3660046118b0565b610d2b565b610285610280366004611930565b610eed565b60405190815260200161016f565b61024f6102a1366004611947565b600860209081525f938452604080852082529284528284209052825290205460ff1681565b61018b6102d436600461177d565b610f0c565b6102856102e7366004611930565b60036020525f908152604090205481565b61018b6103063660046116b9565b611133565b61028560015481565b61024f610322366004611977565b600960209081525f948552604080862082529385528385208152918452828420909152825290205460ff1681565b61036361035e366004611930565b611390565b60405161016f91906119ad565b61018b61037e366004611930565b611427565b6102856103913660046119bf565b611482565b6002546101fe906001600160a01b031681565b600660209081525f92835260408084209091529082529020805481906103ce906119fe565b80601f01602080910402602001604051908101604052809291908181526020018280546103fa906119fe565b80156104455780601f1061041c57610100808354040283529160200191610445565b820191905f5260205f20905b81548152906001019060200180831161042857829003601f168201915b5050506001909301549192505063ffffffff80821691600160201b8104821691600160401b9091041684565b5f54604051631783efc360e01b815260048101849052602481018390526001600160a01b0390911690631783efc3906044015b5f604051808303815f87803b1580156104bb575f5ffd5b505af11580156104cd573d5f5f3e3d5ffd5b505050505050565b5f54604051632b47741360e11b8152600481018490526001600160a01b0383811660248301529091169063568ee826906044016104a4565b600760209081525f93845260408085208252928452828420905282529020805481906103ce906119fe565b5f8054604051632414275160e21b815260048101889052602481018490526001600160a01b03909116906390509d4490604401602060405180830381865afa158015610586573d5f5f3e3d5ffd5b505050506040513d601f19601f820116820180604052508101906105aa9190611a36565b9050806105d25760405162461bcd60e51b81526004016105c990611a58565b60405180910390fd5b5f868152600760209081526040808320888452825280832087845290915281206001810154909163ffffffff90911690036106485760405162461bcd60e51b815260206004820152601660248201527514dd58941bdcdd08191bd95cc81b9bdd08195e1a5cdd60521b60448201526064016105c9565b335f9081526009602090815260408083208a84528252808320898452825280832088845290915290205460ff16806106cd5760405162461bcd60e51b815260206004820152602260248201527f5573657220686173206e6f7420766f746564206f6e207468697320737562706f6044820152611cdd60f21b60648201526084016105c9565b841561071657600182018054600160201b900463ffffffff169060046106f283611aad565b91906101000a81548163ffffffff021916908363ffffffff16021790555050610755565b600182018054600160401b900463ffffffff1690600861073583611aad565b91906101000a81548163ffffffff021916908363ffffffff160217905550505b5050335f90815260096020908152604080832098835297815287822096825295865286812094815293909452505091909120805460ff1916905550565b61079a61156b565b5f5460405163366e997f60e11b81526001600160a01b0390911690636cdd32fe906107cf908790879087908790600401611acb565b5f604051808303815f87803b1580156107e6575f5ffd5b505af11580156107f8573d5f5f3e3d5ffd5b5050505050505050565b5f8054604051632414275160e21b815260048101879052602481018490526001600160a01b03909116906390509d4490604401602060405180830381865afa158015610850573d5f5f3e3d5ffd5b505050506040513d601f19601f820116820180604052508101906108749190611a36565b9050806108935760405162461bcd60e51b81526004016105c990611a58565b5f85815260066020908152604080832087845290915281206001810154909163ffffffff90911690036108fe5760405162461bcd60e51b8152602060048201526013602482015272141bdcdd08191bd95cc81b9bdd08195e1a5cdd606a1b60448201526064016105c9565b335f908152600860209081526040808320898452825280832088845290915290205460ff16801561097d5760405162461bcd60e51b815260206004820152602360248201527f557365722068617320616c726561647920766f746564206f6e207468697320706044820152621bdcdd60ea1b60648201526084016105c9565b84156109c857600182810180546004906109a5908490600160201b900463ffffffff16611b12565b92506101000a81548163ffffffff021916908363ffffffff160217905550610a09565b600182810180546008906109ea908490600160401b900463ffffffff16611b12565b92506101000a81548163ffffffff021916908363ffffffff1602179055505b5050335f9081526008602090815260408083209783529681528682209582529490945250505020805460ff19166001179055565b5f6040518060c001604052808981526020018881526020018781526020018681526020018b81526020018360088060200260405190810160405280929190826008602002808284375f92018290525092909352505460405163d0d898dd60e01b81529293506001600160a01b03169163d0d898dd9150610ac3908d908590600401611b2e565b5f604051808303815f87803b158015610ada575f5ffd5b505af1158015610aec573d5f5f3e3d5ffd5b5050505f8b81526006602090815260408083208d84529091528120600181015490925063ffffffff169003610b635760405162461bcd60e51b815260206004820152601860248201527f4d61696e20506f737420646f6573206e6f74206578697374000000000000000060448201526064016105c9565b6040805160a06020601f88018190040282018101909252608081018681525f9282919089908990819085018382808284375f92018290525093855250505063ffffffff4216602080840191909152604080840183905260609093018290528f8252600781528282208f8352815282822060018084529152919020825192935090918391908190610bf39082611bf9565b50602082015160019091018054604084015160609094015163ffffffff908116600160401b0263ffffffff60401b19958216600160201b0267ffffffffffffffff199093169190941617179290921617905550505050505050505050505050565b610c5c61156b565b600280546001600160a01b0319166001600160a01b0383169081179091556040519081527fc815d89d975fdb1cd9acd263359f94e17450afcac27532c7872f6a752728a7299060200160405180910390a150565b5f8054604051632414275160e21b815260048101859052602481018490526001600160a01b03909116906390509d4490604401602060405180830381865afa158015610cfe573d5f5f3e3d5ffd5b505050506040513d601f19601f82011682018060405250810190610d229190611a36565b90505b92915050565b5f6040518060c001604052808981526020018881526020018781526020018681526020018a81526020018360088060200260405190810160405280929190826008602002808284375f92018290525092909352505460405163d0d898dd60e01b81529293506001600160a01b03169163d0d898dd9150610db1908c908590600401611b2e565b5f604051808303815f87803b158015610dc8575f5ffd5b505af1158015610dda573d5f5f3e3d5ffd5b505050505f604051806080016040528086868080601f0160208091040260200160405190810160405280939291908181526020018383808284375f92018290525093855250505063ffffffff4216602080840191909152604080840183905260609093018290528d825260039052205490915080610e5781611cb4565b5f8d81526003602090815260408083208490556006825280832084845290915290208451919350849250908190610e8e9082611bf9565b50602082015160019091018054604084015160609094015163ffffffff908116600160401b0263ffffffff60401b19958216600160201b0267ffffffffffffffff19909316919094161717929092161790555050505050505050505050565b60048181548110610efc575f80fd5b5f91825260209091200154905081565b5f8054604051632414275160e21b815260048101879052602481018490526001600160a01b03909116906390509d4490604401602060405180830381865afa158015610f5a573d5f5f3e3d5ffd5b505050506040513d601f19601f82011682018060405250810190610f7e9190611a36565b905080610f9d5760405162461bcd60e51b81526004016105c990611a58565b5f85815260066020908152604080832087845290915281206001810154909163ffffffff90911690036110085760405162461bcd60e51b8152602060048201526013602482015272141bdcdd08191bd95cc81b9bdd08195e1a5cdd606a1b60448201526064016105c9565b335f908152600860209081526040808320898452825280832088845290915290205460ff168061107a5760405162461bcd60e51b815260206004820152601f60248201527f5573657220686173206e6f7420766f746564206f6e207468697320706f73740060448201526064016105c9565b84156110c357600182018054600160201b900463ffffffff1690600461109f83611aad565b91906101000a81548163ffffffff021916908363ffffffff16021790555050611102565b600182018054600160401b900463ffffffff169060086110e283611aad565b91906101000a81548163ffffffff021916908363ffffffff160217905550505b5050335f9081526008602090815260408083209783529681528682209582529490945250505020805460ff19169055565b5f8054604051632414275160e21b815260048101889052602481018490526001600160a01b03909116906390509d4490604401602060405180830381865afa158015611181573d5f5f3e3d5ffd5b505050506040513d601f19601f820116820180604052508101906111a59190611a36565b9050806111c45760405162461bcd60e51b81526004016105c990611a58565b5f868152600760209081526040808320888452825280832087845290915281206001810154909163ffffffff909116900361123a5760405162461bcd60e51b815260206004820152601660248201527514dd58941bdcdd08191bd95cc81b9bdd08195e1a5cdd60521b60448201526064016105c9565b335f9081526009602090815260408083208a84528252808320898452825280832088845290915290205460ff1680156112c45760405162461bcd60e51b815260206004820152602660248201527f557365722068617320616c726561647920766f746564206f6e207468697320736044820152651d589c1bdcdd60d21b60648201526084016105c9565b841561130f57600182810180546004906112ec908490600160201b900463ffffffff16611b12565b92506101000a81548163ffffffff021916908363ffffffff160217905550611350565b60018281018054600890611331908490600160401b900463ffffffff16611b12565b92506101000a81548163ffffffff021916908363ffffffff1602179055505b5050335f90815260096020908152604080832098835297815287822096825295865286812094815293909452505091909120805460ff1916600117905550565b60056020525f9081526040902080546113a8906119fe565b80601f01602080910402602001604051908101604052809291908181526020018280546113d4906119fe565b801561141f5780601f106113f65761010080835404028352916020019161141f565b820191905f5260205f20905b81548152906001019060200180831161140257829003601f168201915b505050505081565b5f54604051636d1e6d2960e11b8152600481018390526001600160a01b039091169063da3cda52906024015f604051808303815f87803b158015611469575f5ffd5b505af115801561147b573d5f5f3e3d5ffd5b5050505050565b5f61148b61156b565b5f5f5f9054906101000a90046001600160a01b03166001600160a01b031663575185ed6040518163ffffffff1660e01b81526004016020604051808303815f875af11580156114dc573d5f5f3e3d5ffd5b505050506040513d601f19601f820116820180604052508101906115009190611ccc565b5f81815260056020526040902090915061151b848683611ce3565b5060018054905f61152b83611cb4565b9091555050600480546001810182555f919091527f8a35acfbc15ff81a39ae7d344fd709f28e8600b4aa8c65c6b64bfe7fe36bd19b018190559392505050565b6002546001600160a01b031633146115b35760405162461bcd60e51b815260206004820152600b60248201526a139bdd08105b1b1bddd95960aa1b60448201526064016105c9565b565b5f5f604083850312156115c6575f5ffd5b50508035926020909101359150565b5f81518084528060208401602086015e5f602082860101526020601f19601f83011685010191505092915050565b608081525f61161560808301876115d5565b63ffffffff95861660208401529385166040830152509216606090920191909152919050565b80356001600160a01b0381168114611651575f5ffd5b919050565b5f5f60408385031215611667575f5ffd5b823591506116776020840161163b565b90509250929050565b5f5f5f60608486031215611692575f5ffd5b505081359360208301359350604090920135919050565b80151581146116b6575f5ffd5b50565b5f5f5f5f5f60a086880312156116cd575f5ffd5b85359450602086013593506040860135925060608601356116ed816116a9565b949793965091946080013592915050565b5f5f5f5f60608587031215611711575f5ffd5b8435935060208501359250604085013567ffffffffffffffff811115611735575f5ffd5b8501601f81018713611745575f5ffd5b803567ffffffffffffffff81111561175b575f5ffd5b8760208260051b840101111561176f575f5ffd5b949793965060200194505050565b5f5f5f5f60808587031215611790575f5ffd5b843593506020850135925060408501356117a9816116a9565b9396929550929360600135925050565b5f5f83601f8401126117c9575f5ffd5b50813567ffffffffffffffff8111156117e0575f5ffd5b6020830191508360208285010111156117f7575f5ffd5b9250929050565b806101008101831015610d25575f5ffd5b5f5f5f5f5f5f5f5f5f6101e08a8c031215611828575f5ffd5b8935985060208a0135975060408a0135965060608a0135955060808a0135945060a08a0135935060c08a013567ffffffffffffffff811115611868575f5ffd5b6118748c828d016117b9565b909450925061188890508b60e08c016117fe565b90509295985092959850929598565b5f602082840312156118a7575f5ffd5b610d228261163b565b5f5f5f5f5f5f5f5f6101c0898b0312156118c8575f5ffd5b883597506020890135965060408901359550606089013594506080890135935060a089013567ffffffffffffffff811115611901575f5ffd5b61190d8b828c016117b9565b909450925061192190508a60c08b016117fe565b90509295985092959890939650565b5f60208284031215611940575f5ffd5b5035919050565b5f5f5f60608486031215611959575f5ffd5b6119628461163b565b95602085013595506040909401359392505050565b5f5f5f5f6080858703121561198a575f5ffd5b6119938561163b565b966020860135965060408601359560600135945092505050565b602081525f610d2260208301846115d5565b5f5f602083850312156119d0575f5ffd5b823567ffffffffffffffff8111156119e6575f5ffd5b6119f2858286016117b9565b90969095509350505050565b600181811c90821680611a1257607f821691505b602082108103611a3057634e487b7160e01b5f52602260045260245ffd5b50919050565b5f60208284031215611a46575f5ffd5b8151611a51816116a9565b9392505050565b60208082526021908201527f55736572206973206e6f742061206d656d626572206f66207468652067726f756040820152600760fc1b606082015260800190565b634e487b7160e01b5f52601160045260245ffd5b5f63ffffffff821680611ac257611ac2611a99565b5f190192915050565b8481526020810184905260606040820181905281018290525f6001600160fb1b03831115611af7575f5ffd5b8260051b808560808501379190910160800195945050505050565b63ffffffff8181168382160190811115610d2557610d25611a99565b5f6101c08201905083825282516020830152602083015160408301526040830151606083015260608301516080830152608083015160a083015260a083015160c083015f5b6008811015611b92578251825260209283019290910190600101611b73565b5050509392505050565b634e487b7160e01b5f52604160045260245ffd5b601f821115611bf457805f5260205f20601f840160051c81016020851015611bd55750805b601f840160051c820191505b8181101561147b575f8155600101611be1565b505050565b815167ffffffffffffffff811115611c1357611c13611b9c565b611c2781611c2184546119fe565b84611bb0565b6020601f821160018114611c59575f8315611c425750848201515b5f19600385901b1c1916600184901b17845561147b565b5f84815260208120601f198516915b82811015611c885787850151825560209485019460019092019101611c68565b5084821015611ca557868401515f19600387901b60f8161c191681555b50505050600190811b01905550565b5f60018201611cc557611cc5611a99565b5060010190565b5f60208284031215611cdc575f5ffd5b5051919050565b67ffffffffffffffff831115611cfb57611cfb611b9c565b611d0f83611d0983546119fe565b83611bb0565b5f601f841160018114611d40575f8515611d295750838201355b5f19600387901b1c1916600186901b17835561147b565b5f83815260208120601f198716915b82811015611d6f5786850135825560209485019460019092019101611d4f565b5086821015611d8b575f1960f88860031b161c19848701351681555b505060018560011b018355505050505056fea2646970667358221220bf3443db0fdae1d63cf3f30645001b2cf59ea271fcf713884d7ef12ebeb4ccef64736f6c634300081c0033","linkReferences":{}},"methodIdentifiers":{"acceptGroupAdmin(uint256)":"da3cda52","addMember(uint256,uint256)":"1783efc3","admin()":"f851a440","changeAdmin(address)":"8f283970","changeGroupAdmin(uint256,address)":"43ec86ed","createGroup(string)":"dc2ddcae","createMainPost(uint256,uint256,uint256,uint256,uint256,string,uint256[8])":"913975da","createSubPost(uint256,uint256,uint256,uint256,uint256,uint256,string,uint256[8])":"8b72b3d3","deleteVoteOnPost(uint256,uint256,bool,uint256)":"a6ee62d2","deleteVoteOnSubPost(uint256,uint256,uint256,bool,uint256)":"5fb620fb","groupCounter()":"d24924fe","groupNames(uint256)":"d6271edf","groupPostCounters(uint256)":"bbff66f9","groupPosts(uint256,uint256)":"095c7f28","groups(uint256)":"96324bd4","isGroupMember(uint256,uint256)":"8f89921a","postSubPosts(uint256,uint256,uint256)":"49d3a50a","removeMember(uint256,uint256,uint256[])":"6cdd32fe","semaphore()":"7b5d2534","userPostVotes(address,uint256,uint256)":"9db2cb82","userSubPostVotes(address,uint256,uint256,uint256)":"d4d59e83","voteOnPost(uint256,uint256,bool,uint256)":"7627415a","voteOnSubPost(uint256,uint256,uint256,bool,uint256)":"be0d93eb"},"id":17}