{"abi":[{"type":"constructor","inputs":[{"name":"_semaphoreAddress","type":"address","internalType":"address"}],"stateMutability":"nonpayable"},{"type":"function","name":"acceptGroupAdmin","inputs":[{"name":"_groupId","type":"uint256","internalType":"uint256"}],"outputs":[],"stateMutability":"nonpayable"},{"type":"function","name":"addMember","inputs":[{"name":"_groupId","type":"uint256","internalType":"uint256"},{"name":"_identityCommitment","type":"uint256","internalType":"uint256"}],"outputs":[],"stateMutability":"nonpayable"},{"type":"function","name":"admin","inputs":[],"outputs":[{"name":"","type":"address","internalType":"address"}],"stateMutability":"view"},{"type":"function","name":"changeAdmin","inputs":[{"name":"_newAdmin","type":"address","internalType":"address"}],"outputs":[],"stateMutability":"nonpayable"},{"type":"function","name":"changeGroupAdmin","inputs":[{"name":"_groupId","type":"uint256","internalType":"uint256"},{"name":"_newAdmin","type":"address","internalType":"address"}],"outputs":[],"stateMutability":"nonpayable"},{"type":"function","name":"createGroup","inputs":[{"name":"_name","type":"string","internalType":"string"}],"outputs":[{"name":"","type":"uint256","internalType":"uint256"}],"stateMutability":"nonpayable"},{"type":"function","name":"createMainPost","inputs":[{"name":"_groupId","type":"uint256","internalType":"uint256"},{"name":"_merkleTreeDepth","type":"uint256","internalType":"uint256"},{"name":"_merkleTreeRoot","type":"uint256","internalType":"uint256"},{"name":"_nullifier","type":"uint256","internalType":"uint256"},{"name":"_feedback","type":"uint256","internalType":"uint256"},{"name":"_title","type":"string","internalType":"string"},{"name":"_content","type":"string","internalType":"string"},{"name":"_points","type":"uint256[8]","internalType":"uint256[8]"}],"outputs":[],"stateMutability":"nonpayable"},{"type":"function","name":"createSubPost","inputs":[{"name":"_groupId","type":"uint256","internalType":"uint256"},{"name":"_mainPostId","type":"uint256","internalType":"uint256"},{"name":"_merkleTreeDepth","type":"uint256","internalType":"uint256"},{"name":"_merkleTreeRoot","type":"uint256","internalType":"uint256"},{"name":"_nullifier","type":"uint256","internalType":"uint256"},{"name":"_feedback","type":"uint256","internalType":"uint256"},{"name":"_title","type":"string","internalType":"string"},{"name":"_content","type":"string","internalType":"string"},{"name":"_points","type":"uint256[8]","internalType":"uint256[8]"}],"outputs":[],"stateMutability":"nonpayable"},{"type":"function","name":"deleteVoteOnPost","inputs":[{"name":"_groupId","type":"uint256","internalType":"uint256"},{"name":"_postId","type":"uint256","internalType":"uint256"},{"name":"_isUpvote","type":"bool","internalType":"bool"},{"name":"_identityCommitment","type":"uint256","internalType":"uint256"}],"outputs":[],"stateMutability":"nonpayable"},{"type":"function","name":"deleteVoteOnSubPost","inputs":[{"name":"_groupId","type":"uint256","internalType":"uint256"},{"name":"_postId","type":"uint256","internalType":"uint256"},{"name":"_subPostId","type":"uint256","internalType":"uint256"},{"name":"_isUpvote","type":"bool","internalType":"bool"},{"name":"_identityCommitment","type":"uint256","internalType":"uint256"}],"outputs":[],"stateMutability":"nonpayable"},{"type":"function","name":"groupCounter","inputs":[],"outputs":[{"name":"","type":"uint256","internalType":"uint256"}],"stateMutability":"view"},{"type":"function","name":"groupNames","inputs":[{"name":"groupId","type":"uint256","internalType":"uint256"}],"outputs":[{"name":"name","type":"string","internalType":"string"}],"stateMutability":"view"},{"type":"function","name":"groupPostCounters","inputs":[{"name":"groupId","type":"uint256","internalType":"uint256"}],"outputs":[{"name":"postIDCounter","type":"uint256","internalType":"uint256"}],"stateMutability":"view"},{"type":"function","name":"groupPosts","inputs":[{"name":"groupId","type":"uint256","internalType":"uint256"},{"name":"ombuPostId","type":"uint256","internalType":"uint256"}],"outputs":[{"name":"title","type":"string","internalType":"string"},{"name":"content","type":"string","internalType":"string"},{"name":"timestamp","type":"uint32","internalType":"uint32"},{"name":"upvotes","type":"uint32","internalType":"uint32"},{"name":"downvotes","type":"uint32","internalType":"uint32"}],"stateMutability":"view"},{"type":"function","name":"groupSubPostCounters","inputs":[{"name":"groupId","type":"uint256","internalType":"uint256"},{"name":"postIDCounter","type":"uint256","internalType":"uint256"}],"outputs":[{"name":"subPostIDCounter","type":"uint256","internalType":"uint256"}],"stateMutability":"view"},{"type":"function","name":"groups","inputs":[{"name":"","type":"uint256","internalType":"uint256"}],"outputs":[{"name":"","type":"uint256","internalType":"uint256"}],"stateMutability":"view"},{"type":"function","name":"isGroupMember","inputs":[{"name":"_groupId","type":"uint256","internalType":"uint256"},{"name":"_identityCommitment","type":"uint256","internalType":"uint256"}],"outputs":[{"name":"","type":"bool","internalType":"bool"}],"stateMutability":"view"},{"type":"function","name":"postSubPosts","inputs":[{"name":"groupId","type":"uint256","internalType":"uint256"},{"name":"ombuPostId","type":"uint256","internalType":"uint256"},{"name":"subPostId","type":"uint256","internalType":"uint256"}],"outputs":[{"name":"title","type":"string","internalType":"string"},{"name":"content","type":"string","internalType":"string"},{"name":"timestamp","type":"uint32","internalType":"uint32"},{"name":"upvotes","type":"uint32","internalType":"uint32"},{"name":"downvotes","type":"uint32","internalType":"uint32"}],"stateMutability":"view"},{"type":"function","name":"removeMember","inputs":[{"name":"_groupId","type":"uint256","internalType":"uint256"},{"name":"_identityCommitment","type":"uint256","internalType":"uint256"},{"name":"_merkleProofSiblings","type":"uint256[]","internalType":"uint256[]"}],"outputs":[],"stateMutability":"nonpayable"},{"type":"function","name":"semaphore","inputs":[],"outputs":[{"name":"","type":"address","internalType":"contract ISemaphore"}],"stateMutability":"view"},{"type":"function","name":"userPostVotes","inputs":[{"name":"identityCommitment","type":"uint256","internalType":"uint256"},{"name":"groupId","type":"uint256","internalType":"uint256"},{"name":"postId","type":"uint256","internalType":"uint256"}],"outputs":[{"name":"hasVoted","type":"bool","internalType":"bool"}],"stateMutability":"view"},{"type":"function","name":"userSubPostVotes","inputs":[{"name":"identityCommitment","type":"uint256","internalType":"uint256"},{"name":"groupId","type":"uint256","internalType":"uint256"},{"name":"postId","type":"uint256","internalType":"uint256"},{"name":"subPostId","type":"uint256","internalType":"uint256"}],"outputs":[{"name":"hasVoted","type":"bool","internalType":"bool"}],"stateMutability":"view"},{"type":"function","name":"voteOnPost","inputs":[{"name":"_groupId","type":"uint256","internalType":"uint256"},{"name":"_postId","type":"uint256","internalType":"uint256"},{"name":"_isUpvote","type":"bool","internalType":"bool"},{"name":"_identityCommitment","type":"uint256","internalType":"uint256"}],"outputs":[],"stateMutability":"nonpayable"},{"type":"function","name":"voteOnSubPost","inputs":[{"name":"_groupId","type":"uint256","internalType":"uint256"},{"name":"_postId","type":"uint256","internalType":"uint256"},{"name":"_subPostId","type":"uint256","internalType":"uint256"},{"name":"_isUpvote","type":"bool","internalType":"bool"},{"name":"_identityCommitment","type":"uint256","internalType":"uint256"}],"outputs":[],"stateMutability":"nonpayable"},{"type":"event","name":"change_Admin","inputs":[{"name":"_newAdmin","type":"address","indexed":false,"internalType":"address"}],"anonymous":false}],"bytecode":{"object":"0x608060405234801561000f575f5ffd5b5060405161227e38038061227e83398101604081905261002e91610145565b5f80546001600160a01b0383166001600160a01b0319918216811783556002805490921633179091556040805163575185ed60e01b8152905163575185ed91600480820192602092909190829003018187875af1158015610091573d5f5f3e3d5ffd5b505050506040513d601f19601f820116820180604052508101906100b59190610172565b600180549192505f6100c683610189565b909155505060058054600181019091557f036b6384b5eca791c62761152d0c79bb0604c104a5fb6f4eb0703f3154bb3db001819055604080518082018252601081526f24b73b34b9b4b136329023b0b93232b760811b6020828101919091525f8481526006909152919091209061013d9082610245565b5050506102ff565b5f60208284031215610155575f5ffd5b81516001600160a01b038116811461016b575f5ffd5b9392505050565b5f60208284031215610182575f5ffd5b5051919050565b5f600182016101a657634e487b7160e01b5f52601160045260245ffd5b5060010190565b634e487b7160e01b5f52604160045260245ffd5b600181811c908216806101d557607f821691505b6020821081036101f357634e487b7160e01b5f52602260045260245ffd5b50919050565b601f82111561024057805f5260205f20601f840160051c8101602085101561021e5750805b601f840160051c820191505b8181101561023d575f815560010161022a565b50505b505050565b81516001600160401b0381111561025e5761025e6101ad565b6102728161026c84546101c1565b846101f9565b6020601f8211600181146102a4575f831561028d5750848201515b5f19600385901b1c1916600184901b17845561023d565b5f84815260208120601f198516915b828110156102d357878501518255602094850194600190920191016102b3565b50848210156102f057868401515f19600387901b60f8161c191681555b50505050600190811b01905550565b611f728061030c5f395ff3fe608060405234801561000f575f5ffd5b5060043610610153575f3560e01c80638f283970116100bf578063d24924fe11610079578063d24924fe1461036a578063d6271edf14610373578063da3cda5214610393578063dc2ddcae146103a6578063f851a440146103b9578063fb3d748d146103cc575f5ffd5b80638f283970146102ec5780638f89921a146102ff57806396324bd414610312578063a6ee62d214610325578063bbff66f914610338578063be0d93eb14610357575f5ffd5b80635fb620fb116101105780635fb620fb1461023a57806360326d5a1461024d5780636cdd32fe146102895780637627415a1461029c5780637b5d2534146102af578063887a4318146102d9575f5ffd5b8063095c7f28146101575780631783efc3146101845780631a7a3fc71461019957806343ec86ed146101dc5780634521b1cb146101ef57806349d3a50a14610227575b5f5ffd5b61016a610165366004611717565b6103df565b60405161017b959493929190611765565b60405180910390f35b610197610192366004611717565b610534565b005b6101cc6101a73660046117b1565b600960209081525f938452604080852082529284528284209052825290205460ff1681565b604051901515815260200161017b565b6101976101ea3660046117f5565b610598565b6102196101fd366004611717565b600460209081525f928352604080842090915290825290205481565b60405190815260200161017b565b61016a6102353660046117b1565b6105d0565b61019761024836600461182f565b6105fb565b6101cc61025b366004611874565b600a60209081525f948552604080862082529385528385208152918452828420909152825290205460ff1681565b6101976102973660046118a3565b610853565b6101976102aa366004611922565b6108c3565b5f546102c1906001600160a01b031681565b6040516001600160a01b03909116815260200161017b565b6101976102e73660046119b4565b610aff565b6101976102fa366004611a6d565b610ddc565b6101cc61030d366004611717565b610e38565b610219610320366004611a86565b610eb3565b610197610333366004611922565b610ed2565b610219610346366004611a86565b60036020525f908152604090205481565b61019761036536600461182f565b6110f7565b61021960015481565b610386610381366004611a86565b611355565b60405161017b9190611a9d565b6101976103a1366004611a86565b6113ec565b6102196103b4366004611aaf565b611447565b6002546102c1906001600160a01b031681565b6101976103da366004611aee565b611530565b600760209081525f928352604080842090915290825290208054819061040490611b9d565b80601f016020809104026020016040519081016040528092919081815260200182805461043090611b9d565b801561047b5780601f106104525761010080835404028352916020019161047b565b820191905f5260205f20905b81548152906001019060200180831161045e57829003601f168201915b50505050509080600101805461049090611b9d565b80601f01602080910402602001604051908101604052809291908181526020018280546104bc90611b9d565b80156105075780601f106104de57610100808354040283529160200191610507565b820191905f5260205f20905b8154815290600101906020018083116104ea57829003601f168201915b5050506002909301549192505063ffffffff808216916401000000008104821691600160401b9091041685565b5f54604051631783efc360e01b815260048101849052602481018390526001600160a01b0390911690631783efc3906044015b5f604051808303815f87803b15801561057e575f5ffd5b505af1158015610590573d5f5f3e3d5ffd5b505050505050565b5f54604051632b47741360e11b8152600481018490526001600160a01b0383811660248301529091169063568ee82690604401610567565b600860209081525f938452604080852082529284528284209052825290208054819061040490611b9d565b5f8054604051632414275160e21b815260048101889052602481018490526001600160a01b03909116906390509d4490604401602060405180830381865afa158015610649573d5f5f3e3d5ffd5b505050506040513d601f19601f8201168201806040525081019061066d9190611bd5565b9050806106955760405162461bcd60e51b815260040161068c90611bf7565b60405180910390fd5b5f868152600860209081526040808320888452825280832087845290915281206002810154909163ffffffff909116900361070b5760405162461bcd60e51b815260206004820152601660248201527514dd58941bdcdd08191bd95cc81b9bdd08195e1a5cdd60521b604482015260640161068c565b5f838152600a602090815260408083208a84528252808320898452825280832088845290915290205460ff168061078f5760405162461bcd60e51b815260206004820152602260248201527f5573657220686173206e6f7420766f746564206f6e207468697320737562706f6044820152611cdd60f21b606482015260840161068c565b84156107d957600282018054640100000000900463ffffffff169060046107b583611c4c565b91906101000a81548163ffffffff021916908363ffffffff16021790555050610818565b600282018054600160401b900463ffffffff169060086107f883611c4c565b91906101000a81548163ffffffff021916908363ffffffff160217905550505b5050505f908152600a602090815260408083209683529581528582209482529384528481209281529190925291909120805460ff1916905550565b61085b6116cd565b5f5460405163366e997f60e11b81526001600160a01b0390911690636cdd32fe90610890908790879087908790600401611c6a565b5f604051808303815f87803b1580156108a7575f5ffd5b505af11580156108b9573d5f5f3e3d5ffd5b5050505050505050565b5f8054604051632414275160e21b815260048101879052602481018490526001600160a01b03909116906390509d4490604401602060405180830381865afa158015610911573d5f5f3e3d5ffd5b505050506040513d601f19601f820116820180604052508101906109359190611bd5565b9050806109545760405162461bcd60e51b815260040161068c90611bf7565b5f85815260076020908152604080832087845290915281206002810154909163ffffffff90911690036109bf5760405162461bcd60e51b8152602060048201526013602482015272141bdcdd08191bd95cc81b9bdd08195e1a5cdd606a1b604482015260640161068c565b5f838152600960209081526040808320898452825280832088845290915290205460ff168015610a3d5760405162461bcd60e51b815260206004820152602360248201527f557365722068617320616c726561647920766f746564206f6e207468697320706044820152621bdcdd60ea1b606482015260840161068c565b8415610a8a5760018260020160048282829054906101000a900463ffffffff16610a679190611cb1565b92506101000a81548163ffffffff021916908363ffffffff160217905550610acd565b60018260020160088282829054906101000a900463ffffffff16610aae9190611cb1565b92506101000a81548163ffffffff021916908363ffffffff1602179055505b5050505f908152600960209081526040808320958352948152848220938252929092525020805460ff19166001179055565b5f6040518060c001604052808b81526020018a81526020018981526020018881526020018d81526020018360088060200260405190810160405280929190826008602002808284375f92018290525092909352505460405163d0d898dd60e01b81529293506001600160a01b03169163d0d898dd9150610b85908f908590600401611ccd565b5f604051808303815f87803b158015610b9c575f5ffd5b505af1158015610bae573d5f5f3e3d5ffd5b5050505f8d81526007602090815260408083208f845290915281206002015463ffffffff1690039050610c235760405162461bcd60e51b815260206004820152601860248201527f4d61696e20506f737420646f6573206e6f742065786973740000000000000000604482015260640161068c565b5f8c81526004602090815260408083208e845290915290205480610c4681611d3b565b9150508060045f8f81526020019081526020015f205f8e81526020019081526020015f20819055506040518060a0016040528088888080601f0160208091040260200160405190810160405280939291908181526020018383808284375f92019190915250505090825250604080516020601f8901819004810282018101909252878152918101919088908890819084018382808284375f81840152601f19601f8201169050808301925050505050505081526020014263ffffffff1681526020015f63ffffffff1681526020015f63ffffffff1681525060085f8f81526020019081526020015f205f8e81526020019081526020015f205f8381526020019081526020015f205f820151815f019081610d609190611db0565b5060208201516001820190610d759082611db0565b50604082015160029091018054606084015160809094015163ffffffff908116600160401b026bffffffff0000000000000000199582166401000000000267ffffffffffffffff199093169190941617179290921617905550505050505050505050505050565b610de46116cd565b600280546001600160a01b0319166001600160a01b0383169081179091556040519081527fc815d89d975fdb1cd9acd263359f94e17450afcac27532c7872f6a752728a7299060200160405180910390a150565b5f8054604051632414275160e21b815260048101859052602481018490526001600160a01b03909116906390509d4490604401602060405180830381865afa158015610e86573d5f5f3e3d5ffd5b505050506040513d601f19601f82011682018060405250810190610eaa9190611bd5565b90505b92915050565b60058181548110610ec2575f80fd5b5f91825260209091200154905081565b5f8054604051632414275160e21b815260048101879052602481018490526001600160a01b03909116906390509d4490604401602060405180830381865afa158015610f20573d5f5f3e3d5ffd5b505050506040513d601f19601f82011682018060405250810190610f449190611bd5565b905080610f635760405162461bcd60e51b815260040161068c90611bf7565b5f85815260076020908152604080832087845290915281206002810154909163ffffffff9091169003610fce5760405162461bcd60e51b8152602060048201526013602482015272141bdcdd08191bd95cc81b9bdd08195e1a5cdd606a1b604482015260640161068c565b5f838152600960209081526040808320898452825280832088845290915290205460ff168061103f5760405162461bcd60e51b815260206004820152601f60248201527f5573657220686173206e6f7420766f746564206f6e207468697320706f737400604482015260640161068c565b841561108957600282018054640100000000900463ffffffff1690600461106583611c4c565b91906101000a81548163ffffffff021916908363ffffffff160217905550506110c8565b600282018054600160401b900463ffffffff169060086110a883611c4c565b91906101000a81548163ffffffff021916908363ffffffff160217905550505b5050505f908152600960209081526040808320958352948152848220938252929092525020805460ff19169055565b5f8054604051632414275160e21b815260048101889052602481018490526001600160a01b03909116906390509d4490604401602060405180830381865afa158015611145573d5f5f3e3d5ffd5b505050506040513d601f19601f820116820180604052508101906111699190611bd5565b9050806111885760405162461bcd60e51b815260040161068c90611bf7565b5f868152600860209081526040808320888452825280832087845290915281206002810154909163ffffffff90911690036111fe5760405162461bcd60e51b815260206004820152601660248201527514dd58941bdcdd08191bd95cc81b9bdd08195e1a5cdd60521b604482015260640161068c565b5f838152600a602090815260408083208a84528252808320898452825280832088845290915290205460ff1680156112875760405162461bcd60e51b815260206004820152602660248201527f557365722068617320616c726561647920766f746564206f6e207468697320736044820152651d589c1bdcdd60d21b606482015260840161068c565b84156112d45760018260020160048282829054906101000a900463ffffffff166112b19190611cb1565b92506101000a81548163ffffffff021916908363ffffffff160217905550611317565b60018260020160088282829054906101000a900463ffffffff166112f89190611cb1565b92506101000a81548163ffffffff021916908363ffffffff1602179055505b5050505f908152600a602090815260408083209683529581528582209482529384528481209281529190925291909120805460ff1916600117905550565b60066020525f90815260409020805461136d90611b9d565b80601f016020809104026020016040519081016040528092919081815260200182805461139990611b9d565b80156113e45780601f106113bb576101008083540402835291602001916113e4565b820191905f5260205f20905b8154815290600101906020018083116113c757829003601f168201915b505050505081565b5f54604051636d1e6d2960e11b8152600481018390526001600160a01b039091169063da3cda52906024015f604051808303815f87803b15801561142e575f5ffd5b505af1158015611440573d5f5f3e3d5ffd5b5050505050565b5f6114506116cd565b5f5f5f9054906101000a90046001600160a01b03166001600160a01b031663575185ed6040518163ffffffff1660e01b81526004016020604051808303815f875af11580156114a1573d5f5f3e3d5ffd5b505050506040513d601f19601f820116820180604052508101906114c59190611e6b565b5f8181526006602052604090209091506114e0848683611e82565b5060018054905f6114f083611d3b565b9091555050600580546001810182555f919091527f036b6384b5eca791c62761152d0c79bb0604c104a5fb6f4eb0703f3154bb3db0018190559392505050565b5f6040518060c001604052808b81526020018a81526020018981526020018881526020018c81526020018360088060200260405190810160405280929190826008602002808284375f92018290525092909352505460405163d0d898dd60e01b81529293506001600160a01b03169163d0d898dd91506115b6908e908590600401611ccd565b5f604051808303815f87803b1580156115cd575f5ffd5b505af11580156115df573d5f5f3e3d5ffd5b505050505f6040518060a0016040528088888080601f0160208091040260200160405190810160405280939291908181526020018383808284375f92019190915250505090825250604080516020601f8901819004810282018101909252878152918101919088908890819084018382808284375f92018290525093855250505063ffffffff4216602080840191909152604080840183905260609093018290528f82526003905220549091508061169681611d3b565b5f8f81526003602090815260408083208490556007825280832084845290915290208451919350849250908190610d609082611db0565b6002546001600160a01b031633146117155760405162461bcd60e51b815260206004820152600b60248201526a139bdd08105b1b1bddd95960aa1b604482015260640161068c565b565b5f5f60408385031215611728575f5ffd5b50508035926020909101359150565b5f81518084528060208401602086015e5f602082860101526020601f19601f83011685010191505092915050565b60a081525f61177760a0830188611737565b82810360208401526117898188611737565b63ffffffff968716604085015294861660608401525050921660809092019190915292915050565b5f5f5f606084860312156117c3575f5ffd5b505081359360208301359350604090920135919050565b80356001600160a01b03811681146117f0575f5ffd5b919050565b5f5f60408385031215611806575f5ffd5b82359150611816602084016117da565b90509250929050565b801515811461182c575f5ffd5b50565b5f5f5f5f5f60a08688031215611843575f5ffd5b85359450602086013593506040860135925060608601356118638161181f565b949793965091946080013592915050565b5f5f5f5f60808587031215611887575f5ffd5b5050823594602084013594506040840135936060013592509050565b5f5f5f5f606085870312156118b6575f5ffd5b8435935060208501359250604085013567ffffffffffffffff8111156118da575f5ffd5b8501601f810187136118ea575f5ffd5b803567ffffffffffffffff811115611900575f5ffd5b8760208260051b8401011115611914575f5ffd5b949793965060200194505050565b5f5f5f5f60808587031215611935575f5ffd5b8435935060208501359250604085013561194e8161181f565b9396929550929360600135925050565b5f5f83601f84011261196e575f5ffd5b50813567ffffffffffffffff811115611985575f5ffd5b60208301915083602082850101111561199c575f5ffd5b9250929050565b806101008101831015610ead575f5ffd5b5f5f5f5f5f5f5f5f5f5f5f6102008c8e0312156119cf575f5ffd5b8b359a5060208c0135995060408c0135985060608c0135975060808c0135965060a08c0135955060c08c013567ffffffffffffffff811115611a0f575f5ffd5b611a1b8e828f0161195e565b90965094505060e08c013567ffffffffffffffff811115611a3a575f5ffd5b611a468e828f0161195e565b9094509250611a5b90508d6101008e016119a3565b90509295989b509295989b9093969950565b5f60208284031215611a7d575f5ffd5b610eaa826117da565b5f60208284031215611a96575f5ffd5b5035919050565b602081525f610eaa6020830184611737565b5f5f60208385031215611ac0575f5ffd5b823567ffffffffffffffff811115611ad6575f5ffd5b611ae28582860161195e565b90969095509350505050565b5f5f5f5f5f5f5f5f5f5f6101e08b8d031215611b08575f5ffd5b8a35995060208b0135985060408b0135975060608b0135965060808b0135955060a08b013567ffffffffffffffff811115611b41575f5ffd5b611b4d8d828e0161195e565b90965094505060c08b013567ffffffffffffffff811115611b6c575f5ffd5b611b788d828e0161195e565b9094509250611b8c90508c60e08d016119a3565b90509295989b9194979a5092959850565b600181811c90821680611bb157607f821691505b602082108103611bcf57634e487b7160e01b5f52602260045260245ffd5b50919050565b5f60208284031215611be5575f5ffd5b8151611bf08161181f565b9392505050565b60208082526021908201527f55736572206973206e6f742061206d656d626572206f66207468652067726f756040820152600760fc1b606082015260800190565b634e487b7160e01b5f52601160045260245ffd5b5f63ffffffff821680611c6157611c61611c38565b5f190192915050565b8481526020810184905260606040820181905281018290525f6001600160fb1b03831115611c96575f5ffd5b8260051b808560808501379190910160800195945050505050565b63ffffffff8181168382160190811115610ead57610ead611c38565b5f6101c08201905083825282516020830152602083015160408301526040830151606083015260608301516080830152608083015160a083015260a083015160c083015f5b6008811015611d31578251825260209283019290910190600101611d12565b5050509392505050565b5f60018201611d4c57611d4c611c38565b5060010190565b634e487b7160e01b5f52604160045260245ffd5b601f821115611dab57805f5260205f20601f840160051c81016020851015611d8c5750805b601f840160051c820191505b81811015611440575f8155600101611d98565b505050565b815167ffffffffffffffff811115611dca57611dca611d53565b611dde81611dd88454611b9d565b84611d67565b6020601f821160018114611e10575f8315611df95750848201515b5f19600385901b1c1916600184901b178455611440565b5f84815260208120601f198516915b82811015611e3f5787850151825560209485019460019092019101611e1f565b5084821015611e5c57868401515f19600387901b60f8161c191681555b50505050600190811b01905550565b5f60208284031215611e7b575f5ffd5b5051919050565b67ffffffffffffffff831115611e9a57611e9a611d53565b611eae83611ea88354611b9d565b83611d67565b5f601f841160018114611edf575f8515611ec85750838201355b5f19600387901b1c1916600186901b178355611440565b5f83815260208120601f198716915b82811015611f0e5786850135825560209485019460019092019101611eee565b5086821015611f2a575f1960f88860031b161c19848701351681555b505060018560011b018355505050505056fea26469706673582212206d7594d540159b8457534fc3a5c758557bf71bc6c1ed6edc6e45755664d1e76864736f6c634300081c0033","linkReferences":{}},"methodIdentifiers":{"acceptGroupAdmin(uint256)":"da3cda52","addMember(uint256,uint256)":"1783efc3","admin()":"f851a440","changeAdmin(address)":"8f283970","changeGroupAdmin(uint256,address)":"43ec86ed","createGroup(string)":"dc2ddcae","createMainPost(uint256,uint256,uint256,uint256,uint256,string,string,uint256[8])":"fb3d748d","createSubPost(uint256,uint256,uint256,uint256,uint256,uint256,string,string,uint256[8])":"887a4318","deleteVoteOnPost(uint256,uint256,bool,uint256)":"a6ee62d2","deleteVoteOnSubPost(uint256,uint256,uint256,bool,uint256)":"5fb620fb","groupCounter()":"d24924fe","groupNames(uint256)":"d6271edf","groupPostCounters(uint256)":"bbff66f9","groupPosts(uint256,uint256)":"095c7f28","groupSubPostCounters(uint256,uint256)":"4521b1cb","groups(uint256)":"96324bd4","isGroupMember(uint256,uint256)":"8f89921a","postSubPosts(uint256,uint256,uint256)":"49d3a50a","removeMember(uint256,uint256,uint256[])":"6cdd32fe","semaphore()":"7b5d2534","userPostVotes(uint256,uint256,uint256)":"1a7a3fc7","userSubPostVotes(uint256,uint256,uint256,uint256)":"60326d5a","voteOnPost(uint256,uint256,bool,uint256)":"7627415a","voteOnSubPost(uint256,uint256,uint256,bool,uint256)":"be0d93eb"},"id":17}