{"abi":[{"type":"constructor","inputs":[{"name":"_semaphoreAddress","type":"address","internalType":"address"}],"stateMutability":"nonpayable"},{"type":"function","name":"acceptGroupAdmin","inputs":[{"name":"_groupId","type":"uint256","internalType":"uint256"}],"outputs":[],"stateMutability":"nonpayable"},{"type":"function","name":"addMember","inputs":[{"name":"_groupId","type":"uint256","internalType":"uint256"},{"name":"_identityCommitment","type":"uint256","internalType":"uint256"}],"outputs":[],"stateMutability":"nonpayable"},{"type":"function","name":"admin","inputs":[],"outputs":[{"name":"","type":"address","internalType":"address"}],"stateMutability":"view"},{"type":"function","name":"changeAdmin","inputs":[{"name":"_newAdmin","type":"address","internalType":"address"}],"outputs":[],"stateMutability":"nonpayable"},{"type":"function","name":"changeGroupAdmin","inputs":[{"name":"_groupId","type":"uint256","internalType":"uint256"},{"name":"_newAdmin","type":"address","internalType":"address"}],"outputs":[],"stateMutability":"nonpayable"},{"type":"function","name":"createGroup","inputs":[{"name":"_name","type":"string","internalType":"string"}],"outputs":[{"name":"","type":"uint256","internalType":"uint256"}],"stateMutability":"nonpayable"},{"type":"function","name":"createMainPost","inputs":[{"name":"_groupId","type":"uint256","internalType":"uint256"},{"name":"_merkleTreeDepth","type":"uint256","internalType":"uint256"},{"name":"_merkleTreeRoot","type":"uint256","internalType":"uint256"},{"name":"_nullifier","type":"uint256","internalType":"uint256"},{"name":"_feedback","type":"uint256","internalType":"uint256"},{"name":"_title","type":"string","internalType":"string"},{"name":"_content","type":"string","internalType":"string"},{"name":"_points","type":"uint256[8]","internalType":"uint256[8]"}],"outputs":[],"stateMutability":"nonpayable"},{"type":"function","name":"createSubPost","inputs":[{"name":"_groupId","type":"uint256","internalType":"uint256"},{"name":"_mainPostId","type":"uint256","internalType":"uint256"},{"name":"_merkleTreeDepth","type":"uint256","internalType":"uint256"},{"name":"_merkleTreeRoot","type":"uint256","internalType":"uint256"},{"name":"_nullifier","type":"uint256","internalType":"uint256"},{"name":"_feedback","type":"uint256","internalType":"uint256"},{"name":"_title","type":"string","internalType":"string"},{"name":"_content","type":"string","internalType":"string"},{"name":"_points","type":"uint256[8]","internalType":"uint256[8]"}],"outputs":[],"stateMutability":"nonpayable"},{"type":"function","name":"deleteVoteOnPost","inputs":[{"name":"_groupId","type":"uint256","internalType":"uint256"},{"name":"_postId","type":"uint256","internalType":"uint256"},{"name":"_isUpvote","type":"bool","internalType":"bool"},{"name":"_identityCommitment","type":"uint256","internalType":"uint256"}],"outputs":[],"stateMutability":"nonpayable"},{"type":"function","name":"deleteVoteOnSubPost","inputs":[{"name":"_groupId","type":"uint256","internalType":"uint256"},{"name":"_postId","type":"uint256","internalType":"uint256"},{"name":"_subPostId","type":"uint256","internalType":"uint256"},{"name":"_isUpvote","type":"bool","internalType":"bool"},{"name":"_identityCommitment","type":"uint256","internalType":"uint256"}],"outputs":[],"stateMutability":"nonpayable"},{"type":"function","name":"groupCounter","inputs":[],"outputs":[{"name":"","type":"uint256","internalType":"uint256"}],"stateMutability":"view"},{"type":"function","name":"groupNames","inputs":[{"name":"groupId","type":"uint256","internalType":"uint256"}],"outputs":[{"name":"name","type":"string","internalType":"string"}],"stateMutability":"view"},{"type":"function","name":"groupPostCounters","inputs":[{"name":"groupId","type":"uint256","internalType":"uint256"}],"outputs":[{"name":"postIDCounter","type":"uint256","internalType":"uint256"}],"stateMutability":"view"},{"type":"function","name":"groupPosts","inputs":[{"name":"groupId","type":"uint256","internalType":"uint256"},{"name":"ombuPostId","type":"uint256","internalType":"uint256"}],"outputs":[{"name":"title","type":"string","internalType":"string"},{"name":"content","type":"string","internalType":"string"},{"name":"timestamp","type":"uint32","internalType":"uint32"},{"name":"upvotes","type":"uint32","internalType":"uint32"},{"name":"downvotes","type":"uint32","internalType":"uint32"}],"stateMutability":"view"},{"type":"function","name":"groupSubPostCounters","inputs":[{"name":"groupId","type":"uint256","internalType":"uint256"},{"name":"postIDCounter","type":"uint256","internalType":"uint256"}],"outputs":[{"name":"subPostIDCounter","type":"uint256","internalType":"uint256"}],"stateMutability":"view"},{"type":"function","name":"groups","inputs":[{"name":"","type":"uint256","internalType":"uint256"}],"outputs":[{"name":"","type":"uint256","internalType":"uint256"}],"stateMutability":"view"},{"type":"function","name":"isGroupMember","inputs":[{"name":"_groupId","type":"uint256","internalType":"uint256"},{"name":"_identityCommitment","type":"uint256","internalType":"uint256"}],"outputs":[{"name":"","type":"bool","internalType":"bool"}],"stateMutability":"view"},{"type":"function","name":"postSubPosts","inputs":[{"name":"groupId","type":"uint256","internalType":"uint256"},{"name":"ombuPostId","type":"uint256","internalType":"uint256"},{"name":"subPostId","type":"uint256","internalType":"uint256"}],"outputs":[{"name":"title","type":"string","internalType":"string"},{"name":"content","type":"string","internalType":"string"},{"name":"timestamp","type":"uint32","internalType":"uint32"},{"name":"upvotes","type":"uint32","internalType":"uint32"},{"name":"downvotes","type":"uint32","internalType":"uint32"}],"stateMutability":"view"},{"type":"function","name":"removeMember","inputs":[{"name":"_groupId","type":"uint256","internalType":"uint256"},{"name":"_identityCommitment","type":"uint256","internalType":"uint256"},{"name":"_merkleProofSiblings","type":"uint256[]","internalType":"uint256[]"}],"outputs":[],"stateMutability":"nonpayable"},{"type":"function","name":"semaphore","inputs":[],"outputs":[{"name":"","type":"address","internalType":"contract ISemaphore"}],"stateMutability":"view"},{"type":"function","name":"userPostVotes","inputs":[{"name":"identityCommitment","type":"uint256","internalType":"uint256"},{"name":"groupId","type":"uint256","internalType":"uint256"},{"name":"postId","type":"uint256","internalType":"uint256"}],"outputs":[{"name":"hasVoted","type":"bool","internalType":"bool"}],"stateMutability":"view"},{"type":"function","name":"userSubPostVotes","inputs":[{"name":"identityCommitment","type":"uint256","internalType":"uint256"},{"name":"groupId","type":"uint256","internalType":"uint256"},{"name":"postId","type":"uint256","internalType":"uint256"},{"name":"subPostId","type":"uint256","internalType":"uint256"}],"outputs":[{"name":"hasVoted","type":"bool","internalType":"bool"}],"stateMutability":"view"},{"type":"function","name":"voteOnPost","inputs":[{"name":"_groupId","type":"uint256","internalType":"uint256"},{"name":"_postId","type":"uint256","internalType":"uint256"},{"name":"_isUpvote","type":"bool","internalType":"bool"},{"name":"_identityCommitment","type":"uint256","internalType":"uint256"}],"outputs":[],"stateMutability":"nonpayable"},{"type":"function","name":"voteOnSubPost","inputs":[{"name":"_groupId","type":"uint256","internalType":"uint256"},{"name":"_postId","type":"uint256","internalType":"uint256"},{"name":"_subPostId","type":"uint256","internalType":"uint256"},{"name":"_isUpvote","type":"bool","internalType":"bool"},{"name":"_identityCommitment","type":"uint256","internalType":"uint256"}],"outputs":[],"stateMutability":"nonpayable"},{"type":"event","name":"change_Admin","inputs":[{"name":"_newAdmin","type":"address","indexed":false,"internalType":"address"}],"anonymous":false}],"bytecode":{"object":"0x608060405234801561000f575f5ffd5b5060405161229838038061229883398101604081905261002e91610145565b5f80546001600160a01b0383166001600160a01b0319918216811783556002805490921633179091556040805163575185ed60e01b8152905163575185ed91600480820192602092909190829003018187875af1158015610091573d5f5f3e3d5ffd5b505050506040513d601f19601f820116820180604052508101906100b59190610172565b600180549192505f6100c683610189565b909155505060058054600181019091557f036b6384b5eca791c62761152d0c79bb0604c104a5fb6f4eb0703f3154bb3db001819055604080518082018252601081526f24b73b34b9b4b136329023b0b93232b760811b6020828101919091525f8481526006909152919091209061013d9082610245565b5050506102ff565b5f60208284031215610155575f5ffd5b81516001600160a01b038116811461016b575f5ffd5b9392505050565b5f60208284031215610182575f5ffd5b5051919050565b5f600182016101a657634e487b7160e01b5f52601160045260245ffd5b5060010190565b634e487b7160e01b5f52604160045260245ffd5b600181811c908216806101d557607f821691505b6020821081036101f357634e487b7160e01b5f52602260045260245ffd5b50919050565b601f82111561024057805f5260205f20601f840160051c8101602085101561021e5750805b601f840160051c820191505b8181101561023d575f815560010161022a565b50505b505050565b81516001600160401b0381111561025e5761025e6101ad565b6102728161026c84546101c1565b846101f9565b6020601f8211600181146102a4575f831561028d5750848201515b5f19600385901b1c1916600184901b17845561023d565b5f84815260208120601f198516915b828110156102d357878501518255602094850194600190920191016102b3565b50848210156102f057868401515f19600387901b60f8161c191681555b50505050600190811b01905550565b611f8c8061030c5f395ff3fe608060405234801561000f575f5ffd5b5060043610610153575f3560e01c80638f283970116100bf578063d24924fe11610079578063d24924fe1461036a578063d6271edf14610373578063da3cda5214610393578063dc2ddcae146103a6578063f851a440146103b9578063fb3d748d146103cc575f5ffd5b80638f283970146102ec5780638f89921a146102ff57806396324bd414610312578063a6ee62d214610325578063bbff66f914610338578063be0d93eb14610357575f5ffd5b80635fb620fb116101105780635fb620fb1461023a57806360326d5a1461024d5780636cdd32fe146102895780637627415a1461029c5780637b5d2534146102af578063887a4318146102d9575f5ffd5b8063095c7f28146101575780631783efc3146101845780631a7a3fc71461019957806343ec86ed146101dc5780634521b1cb146101ef57806349d3a50a14610227575b5f5ffd5b61016a610165366004611731565b6103df565b60405161017b95949392919061177f565b60405180910390f35b610197610192366004611731565b610534565b005b6101cc6101a73660046117cb565b600960209081525f938452604080852082529284528284209052825290205460ff1681565b604051901515815260200161017b565b6101976101ea36600461180f565b610598565b6102196101fd366004611731565b600460209081525f928352604080842090915290825290205481565b60405190815260200161017b565b61016a6102353660046117cb565b6105d0565b610197610248366004611849565b6105fb565b6101cc61025b36600461188e565b600a60209081525f948552604080862082529385528385208152918452828420909152825290205460ff1681565b6101976102973660046118bd565b610853565b6101976102aa36600461193c565b6108c3565b5f546102c1906001600160a01b031681565b6040516001600160a01b03909116815260200161017b565b6101976102e73660046119ce565b610ab7565b6101976102fa366004611a87565b610dec565b6101cc61030d366004611731565b610e48565b610219610320366004611aa0565b610ec3565b61019761033336600461193c565b610ee2565b610219610346366004611aa0565b60036020525f908152604090205481565b610197610365366004611849565b611107565b61021960015481565b610386610381366004611aa0565b61131b565b60405161017b9190611ab7565b6101976103a1366004611aa0565b6113b2565b6102196103b4366004611ac9565b61140d565b6002546102c1906001600160a01b031681565b6101976103da366004611b08565b6114f6565b600760209081525f928352604080842090915290825290208054819061040490611bb7565b80601f016020809104026020016040519081016040528092919081815260200182805461043090611bb7565b801561047b5780601f106104525761010080835404028352916020019161047b565b820191905f5260205f20905b81548152906001019060200180831161045e57829003601f168201915b50505050509080600101805461049090611bb7565b80601f01602080910402602001604051908101604052809291908181526020018280546104bc90611bb7565b80156105075780601f106104de57610100808354040283529160200191610507565b820191905f5260205f20905b8154815290600101906020018083116104ea57829003601f168201915b5050506002909301549192505063ffffffff808216916401000000008104821691600160401b9091041685565b5f54604051631783efc360e01b815260048101849052602481018390526001600160a01b0390911690631783efc3906044015b5f604051808303815f87803b15801561057e575f5ffd5b505af1158015610590573d5f5f3e3d5ffd5b505050505050565b5f54604051632b47741360e11b8152600481018490526001600160a01b0383811660248301529091169063568ee82690604401610567565b600860209081525f938452604080852082529284528284209052825290208054819061040490611bb7565b5f8054604051632414275160e21b815260048101889052602481018490526001600160a01b03909116906390509d4490604401602060405180830381865afa158015610649573d5f5f3e3d5ffd5b505050506040513d601f19601f8201168201806040525081019061066d9190611bef565b9050806106955760405162461bcd60e51b815260040161068c90611c11565b60405180910390fd5b5f868152600860209081526040808320888452825280832087845290915281206002810154909163ffffffff909116900361070b5760405162461bcd60e51b815260206004820152601660248201527514dd58941bdcdd08191bd95cc81b9bdd08195e1a5cdd60521b604482015260640161068c565b5f838152600a602090815260408083208a84528252808320898452825280832088845290915290205460ff168061078f5760405162461bcd60e51b815260206004820152602260248201527f5573657220686173206e6f7420766f746564206f6e207468697320737562706f6044820152611cdd60f21b606482015260840161068c565b84156107d957600282018054640100000000900463ffffffff169060046107b583611c66565b91906101000a81548163ffffffff021916908363ffffffff16021790555050610818565b600282018054600160401b900463ffffffff169060086107f883611c66565b91906101000a81548163ffffffff021916908363ffffffff160217905550505b5050505f908152600a602090815260408083209683529581528582209482529384528481209281529190925291909120805460ff1916905550565b61085b6116e7565b5f5460405163366e997f60e11b81526001600160a01b0390911690636cdd32fe90610890908790879087908790600401611c84565b5f604051808303815f87803b1580156108a7575f5ffd5b505af11580156108b9573d5f5f3e3d5ffd5b5050505050505050565b5f8054604051632414275160e21b815260048101879052602481018490526001600160a01b03909116906390509d4490604401602060405180830381865afa158015610911573d5f5f3e3d5ffd5b505050506040513d601f19601f820116820180604052508101906109359190611bef565b9050806109545760405162461bcd60e51b815260040161068c90611c11565b5f85815260076020908152604080832087845290915281206002810154909163ffffffff90911690036109bf5760405162461bcd60e51b8152602060048201526013602482015272141bdcdd08191bd95cc81b9bdd08195e1a5cdd606a1b604482015260640161068c565b5f838152600960209081526040808320898452825280832088845290915290205460ff1680156109f5576109f587878787610ee2565b8415610a425760018260020160048282829054906101000a900463ffffffff16610a1f9190611ccb565b92506101000a81548163ffffffff021916908363ffffffff160217905550610a85565b60018260020160088282829054906101000a900463ffffffff16610a669190611ccb565b92506101000a81548163ffffffff021916908363ffffffff1602179055505b5050505f908152600960209081526040808320958352948152848220938252929092525020805460ff19166001179055565b5f6040518060c001604052808b81526020018a81526020018981526020018881526020018d81526020018360088060200260405190810160405280929190826008602002808284375f9201829052509290935250546040516308ade83160e31b81529293506001600160a01b03169163456f41889150610b3d908f908590600401611ce7565b602060405180830381865afa158015610b58573d5f5f3e3d5ffd5b505050506040513d601f19601f82011682018060405250810190610b7c9190611bef565b610bc35760405162461bcd60e51b815260206004820152601860248201527729b2b6b0b83437b9329d1024b73b30b634b210383937b7b360411b604482015260640161068c565b5f8c81526007602090815260408083208e845290915281206002015463ffffffff169003610c335760405162461bcd60e51b815260206004820152601860248201527f4d61696e20506f737420646f6573206e6f742065786973740000000000000000604482015260640161068c565b5f8c81526004602090815260408083208e845290915290205480610c5681611d55565b9150508060045f8f81526020019081526020015f205f8e81526020019081526020015f20819055506040518060a0016040528088888080601f0160208091040260200160405190810160405280939291908181526020018383808284375f92019190915250505090825250604080516020601f8901819004810282018101909252878152918101919088908890819084018382808284375f81840152601f19601f8201169050808301925050505050505081526020014263ffffffff1681526020015f63ffffffff1681526020015f63ffffffff1681525060085f8f81526020019081526020015f205f8e81526020019081526020015f205f8381526020019081526020015f205f820151815f019081610d709190611dca565b5060208201516001820190610d859082611dca565b50604082015160029091018054606084015160809094015163ffffffff908116600160401b026bffffffff0000000000000000199582166401000000000267ffffffffffffffff199093169190941617179290921617905550505050505050505050505050565b610df46116e7565b600280546001600160a01b0319166001600160a01b0383169081179091556040519081527fc815d89d975fdb1cd9acd263359f94e17450afcac27532c7872f6a752728a7299060200160405180910390a150565b5f8054604051632414275160e21b815260048101859052602481018490526001600160a01b03909116906390509d4490604401602060405180830381865afa158015610e96573d5f5f3e3d5ffd5b505050506040513d601f19601f82011682018060405250810190610eba9190611bef565b90505b92915050565b60058181548110610ed2575f80fd5b5f91825260209091200154905081565b5f8054604051632414275160e21b815260048101879052602481018490526001600160a01b03909116906390509d4490604401602060405180830381865afa158015610f30573d5f5f3e3d5ffd5b505050506040513d601f19601f82011682018060405250810190610f549190611bef565b905080610f735760405162461bcd60e51b815260040161068c90611c11565b5f85815260076020908152604080832087845290915281206002810154909163ffffffff9091169003610fde5760405162461bcd60e51b8152602060048201526013602482015272141bdcdd08191bd95cc81b9bdd08195e1a5cdd606a1b604482015260640161068c565b5f838152600960209081526040808320898452825280832088845290915290205460ff168061104f5760405162461bcd60e51b815260206004820152601f60248201527f5573657220686173206e6f7420766f746564206f6e207468697320706f737400604482015260640161068c565b841561109957600282018054640100000000900463ffffffff1690600461107583611c66565b91906101000a81548163ffffffff021916908363ffffffff160217905550506110d8565b600282018054600160401b900463ffffffff169060086110b883611c66565b91906101000a81548163ffffffff021916908363ffffffff160217905550505b5050505f908152600960209081526040808320958352948152848220938252929092525020805460ff19169055565b5f8054604051632414275160e21b815260048101889052602481018490526001600160a01b03909116906390509d4490604401602060405180830381865afa158015611155573d5f5f3e3d5ffd5b505050506040513d601f19601f820116820180604052508101906111799190611bef565b9050806111985760405162461bcd60e51b815260040161068c90611c11565b5f868152600860209081526040808320888452825280832087845290915281206002810154909163ffffffff909116900361120e5760405162461bcd60e51b815260206004820152601660248201527514dd58941bdcdd08191bd95cc81b9bdd08195e1a5cdd60521b604482015260640161068c565b5f838152600a602090815260408083208a84528252808320898452825280832088845290915290205460ff16801561124d5761124d88888888886105fb565b841561129a5760018260020160048282829054906101000a900463ffffffff166112779190611ccb565b92506101000a81548163ffffffff021916908363ffffffff1602179055506112dd565b60018260020160088282829054906101000a900463ffffffff166112be9190611ccb565b92506101000a81548163ffffffff021916908363ffffffff1602179055505b5050505f908152600a602090815260408083209683529581528582209482529384528481209281529190925291909120805460ff1916600117905550565b60066020525f90815260409020805461133390611bb7565b80601f016020809104026020016040519081016040528092919081815260200182805461135f90611bb7565b80156113aa5780601f10611381576101008083540402835291602001916113aa565b820191905f5260205f20905b81548152906001019060200180831161138d57829003601f168201915b505050505081565b5f54604051636d1e6d2960e11b8152600481018390526001600160a01b039091169063da3cda52906024015f604051808303815f87803b1580156113f4575f5ffd5b505af1158015611406573d5f5f3e3d5ffd5b5050505050565b5f6114166116e7565b5f5f5f9054906101000a90046001600160a01b03166001600160a01b031663575185ed6040518163ffffffff1660e01b81526004016020604051808303815f875af1158015611467573d5f5f3e3d5ffd5b505050506040513d601f19601f8201168201806040525081019061148b9190611e85565b5f8181526006602052604090209091506114a6848683611e9c565b5060018054905f6114b683611d55565b9091555050600580546001810182555f919091527f036b6384b5eca791c62761152d0c79bb0604c104a5fb6f4eb0703f3154bb3db0018190559392505050565b5f6040518060c001604052808b81526020018a81526020018981526020018881526020018c81526020018360088060200260405190810160405280929190826008602002808284375f9201829052509290935250546040516308ade83160e31b81529293506001600160a01b03169163456f4188915061157c908e908590600401611ce7565b602060405180830381865afa158015611597573d5f5f3e3d5ffd5b505050506040513d601f19601f820116820180604052508101906115bb9190611bef565b6116025760405162461bcd60e51b815260206004820152601860248201527729b2b6b0b83437b9329d1024b73b30b634b210383937b7b360411b604482015260640161068c565b6040805160c06020601f8901819004028201810190925260a081018781525f928291908a908a90819085018382808284375f92019190915250505090825250604080516020601f8901819004810282018101909252878152918101919088908890819084018382808284375f92018290525093855250505063ffffffff4216602080840191909152604080840183905260609093018290528f8252600390522054909150806116b081611d55565b5f8f81526003602090815260408083208490556007825280832084845290915290208451919350849250908190610d709082611dca565b6002546001600160a01b0316331461172f5760405162461bcd60e51b815260206004820152600b60248201526a139bdd08105b1b1bddd95960aa1b604482015260640161068c565b565b5f5f60408385031215611742575f5ffd5b50508035926020909101359150565b5f81518084528060208401602086015e5f602082860101526020601f19601f83011685010191505092915050565b60a081525f61179160a0830188611751565b82810360208401526117a38188611751565b63ffffffff968716604085015294861660608401525050921660809092019190915292915050565b5f5f5f606084860312156117dd575f5ffd5b505081359360208301359350604090920135919050565b80356001600160a01b038116811461180a575f5ffd5b919050565b5f5f60408385031215611820575f5ffd5b82359150611830602084016117f4565b90509250929050565b8015158114611846575f5ffd5b50565b5f5f5f5f5f60a0868803121561185d575f5ffd5b853594506020860135935060408601359250606086013561187d81611839565b949793965091946080013592915050565b5f5f5f5f608085870312156118a1575f5ffd5b5050823594602084013594506040840135936060013592509050565b5f5f5f5f606085870312156118d0575f5ffd5b8435935060208501359250604085013567ffffffffffffffff8111156118f4575f5ffd5b8501601f81018713611904575f5ffd5b803567ffffffffffffffff81111561191a575f5ffd5b8760208260051b840101111561192e575f5ffd5b949793965060200194505050565b5f5f5f5f6080858703121561194f575f5ffd5b8435935060208501359250604085013561196881611839565b9396929550929360600135925050565b5f5f83601f840112611988575f5ffd5b50813567ffffffffffffffff81111561199f575f5ffd5b6020830191508360208285010111156119b6575f5ffd5b9250929050565b806101008101831015610ebd575f5ffd5b5f5f5f5f5f5f5f5f5f5f5f6102008c8e0312156119e9575f5ffd5b8b359a5060208c0135995060408c0135985060608c0135975060808c0135965060a08c0135955060c08c013567ffffffffffffffff811115611a29575f5ffd5b611a358e828f01611978565b90965094505060e08c013567ffffffffffffffff811115611a54575f5ffd5b611a608e828f01611978565b9094509250611a7590508d6101008e016119bd565b90509295989b509295989b9093969950565b5f60208284031215611a97575f5ffd5b610eba826117f4565b5f60208284031215611ab0575f5ffd5b5035919050565b602081525f610eba6020830184611751565b5f5f60208385031215611ada575f5ffd5b823567ffffffffffffffff811115611af0575f5ffd5b611afc85828601611978565b90969095509350505050565b5f5f5f5f5f5f5f5f5f5f6101e08b8d031215611b22575f5ffd5b8a35995060208b0135985060408b0135975060608b0135965060808b0135955060a08b013567ffffffffffffffff811115611b5b575f5ffd5b611b678d828e01611978565b90965094505060c08b013567ffffffffffffffff811115611b86575f5ffd5b611b928d828e01611978565b9094509250611ba690508c60e08d016119bd565b90509295989b9194979a5092959850565b600181811c90821680611bcb57607f821691505b602082108103611be957634e487b7160e01b5f52602260045260245ffd5b50919050565b5f60208284031215611bff575f5ffd5b8151611c0a81611839565b9392505050565b60208082526021908201527f55736572206973206e6f742061206d656d626572206f66207468652067726f756040820152600760fc1b606082015260800190565b634e487b7160e01b5f52601160045260245ffd5b5f63ffffffff821680611c7b57611c7b611c52565b5f190192915050565b8481526020810184905260606040820181905281018290525f6001600160fb1b03831115611cb0575f5ffd5b8260051b808560808501379190910160800195945050505050565b63ffffffff8181168382160190811115610ebd57610ebd611c52565b5f6101c08201905083825282516020830152602083015160408301526040830151606083015260608301516080830152608083015160a083015260a083015160c083015f5b6008811015611d4b578251825260209283019290910190600101611d2c565b5050509392505050565b5f60018201611d6657611d66611c52565b5060010190565b634e487b7160e01b5f52604160045260245ffd5b601f821115611dc557805f5260205f20601f840160051c81016020851015611da65750805b601f840160051c820191505b81811015611406575f8155600101611db2565b505050565b815167ffffffffffffffff811115611de457611de4611d6d565b611df881611df28454611bb7565b84611d81565b6020601f821160018114611e2a575f8315611e135750848201515b5f19600385901b1c1916600184901b178455611406565b5f84815260208120601f198516915b82811015611e595787850151825560209485019460019092019101611e39565b5084821015611e7657868401515f19600387901b60f8161c191681555b50505050600190811b01905550565b5f60208284031215611e95575f5ffd5b5051919050565b67ffffffffffffffff831115611eb457611eb4611d6d565b611ec883611ec28354611bb7565b83611d81565b5f601f841160018114611ef9575f8515611ee25750838201355b5f19600387901b1c1916600186901b178355611406565b5f83815260208120601f198716915b82811015611f285786850135825560209485019460019092019101611f08565b5086821015611f44575f1960f88860031b161c19848701351681555b505060018560011b018355505050505056fea264697066735822122065a14938d460f5b2e56970a9156d3c726618d8140b73033685ffa10df4a1978664736f6c634300081c0033","linkReferences":{}},"methodIdentifiers":{"acceptGroupAdmin(uint256)":"da3cda52","addMember(uint256,uint256)":"1783efc3","admin()":"f851a440","changeAdmin(address)":"8f283970","changeGroupAdmin(uint256,address)":"43ec86ed","createGroup(string)":"dc2ddcae","createMainPost(uint256,uint256,uint256,uint256,uint256,string,string,uint256[8])":"fb3d748d","createSubPost(uint256,uint256,uint256,uint256,uint256,uint256,string,string,uint256[8])":"887a4318","deleteVoteOnPost(uint256,uint256,bool,uint256)":"a6ee62d2","deleteVoteOnSubPost(uint256,uint256,uint256,bool,uint256)":"5fb620fb","groupCounter()":"d24924fe","groupNames(uint256)":"d6271edf","groupPostCounters(uint256)":"bbff66f9","groupPosts(uint256,uint256)":"095c7f28","groupSubPostCounters(uint256,uint256)":"4521b1cb","groups(uint256)":"96324bd4","isGroupMember(uint256,uint256)":"8f89921a","postSubPosts(uint256,uint256,uint256)":"49d3a50a","removeMember(uint256,uint256,uint256[])":"6cdd32fe","semaphore()":"7b5d2534","userPostVotes(uint256,uint256,uint256)":"1a7a3fc7","userSubPostVotes(uint256,uint256,uint256,uint256)":"60326d5a","voteOnPost(uint256,uint256,bool,uint256)":"7627415a","voteOnSubPost(uint256,uint256,uint256,bool,uint256)":"be0d93eb"},"id":17}