{"abi":[{"type":"constructor","inputs":[{"name":"_semaphoreAddress","type":"address","internalType":"address"}],"stateMutability":"nonpayable"},{"type":"function","name":"acceptGroupAdmin","inputs":[{"name":"_groupId","type":"uint256","internalType":"uint256"}],"outputs":[],"stateMutability":"nonpayable"},{"type":"function","name":"addMember","inputs":[{"name":"_groupId","type":"uint256","internalType":"uint256"},{"name":"_identityCommitment","type":"uint256","internalType":"uint256"}],"outputs":[],"stateMutability":"nonpayable"},{"type":"function","name":"admin","inputs":[],"outputs":[{"name":"","type":"address","internalType":"address"}],"stateMutability":"view"},{"type":"function","name":"changeAdmin","inputs":[{"name":"_newAdmin","type":"address","internalType":"address"}],"outputs":[],"stateMutability":"nonpayable"},{"type":"function","name":"changeGroupAdmin","inputs":[{"name":"_groupId","type":"uint256","internalType":"uint256"},{"name":"_newAdmin","type":"address","internalType":"address"}],"outputs":[],"stateMutability":"nonpayable"},{"type":"function","name":"createGroup","inputs":[{"name":"_name","type":"string","internalType":"string"}],"outputs":[{"name":"","type":"uint256","internalType":"uint256"}],"stateMutability":"nonpayable"},{"type":"function","name":"createMainPost","inputs":[{"name":"_groupId","type":"uint256","internalType":"uint256"},{"name":"_merkleTreeDepth","type":"uint256","internalType":"uint256"},{"name":"_merkleTreeRoot","type":"uint256","internalType":"uint256"},{"name":"_nullifier","type":"uint256","internalType":"uint256"},{"name":"_feedback","type":"uint256","internalType":"uint256"},{"name":"_title","type":"string","internalType":"string"},{"name":"_content","type":"string","internalType":"string"},{"name":"_points","type":"uint256[8]","internalType":"uint256[8]"}],"outputs":[],"stateMutability":"nonpayable"},{"type":"function","name":"createSubPost","inputs":[{"name":"_groupId","type":"uint256","internalType":"uint256"},{"name":"_mainPostId","type":"uint256","internalType":"uint256"},{"name":"_merkleTreeDepth","type":"uint256","internalType":"uint256"},{"name":"_merkleTreeRoot","type":"uint256","internalType":"uint256"},{"name":"_nullifier","type":"uint256","internalType":"uint256"},{"name":"_feedback","type":"uint256","internalType":"uint256"},{"name":"_title","type":"string","internalType":"string"},{"name":"_content","type":"string","internalType":"string"},{"name":"_points","type":"uint256[8]","internalType":"uint256[8]"}],"outputs":[],"stateMutability":"nonpayable"},{"type":"function","name":"deleteVoteOnPost","inputs":[{"name":"_groupId","type":"uint256","internalType":"uint256"},{"name":"_postId","type":"uint256","internalType":"uint256"},{"name":"_identityCommitment","type":"uint256","internalType":"uint256"}],"outputs":[],"stateMutability":"nonpayable"},{"type":"function","name":"deleteVoteOnSubPost","inputs":[{"name":"_groupId","type":"uint256","internalType":"uint256"},{"name":"_postId","type":"uint256","internalType":"uint256"},{"name":"_subPostId","type":"uint256","internalType":"uint256"},{"name":"_identityCommitment","type":"uint256","internalType":"uint256"}],"outputs":[],"stateMutability":"nonpayable"},{"type":"function","name":"groupCounter","inputs":[],"outputs":[{"name":"","type":"uint256","internalType":"uint256"}],"stateMutability":"view"},{"type":"function","name":"groupNames","inputs":[{"name":"groupId","type":"uint256","internalType":"uint256"}],"outputs":[{"name":"name","type":"string","internalType":"string"}],"stateMutability":"view"},{"type":"function","name":"groupPostCounters","inputs":[{"name":"groupId","type":"uint256","internalType":"uint256"}],"outputs":[{"name":"postIDCounter","type":"uint256","internalType":"uint256"}],"stateMutability":"view"},{"type":"function","name":"groupPosts","inputs":[{"name":"groupId","type":"uint256","internalType":"uint256"},{"name":"ombuPostId","type":"uint256","internalType":"uint256"}],"outputs":[{"name":"title","type":"string","internalType":"string"},{"name":"content","type":"string","internalType":"string"},{"name":"timestamp","type":"uint32","internalType":"uint32"},{"name":"upvotes","type":"uint32","internalType":"uint32"},{"name":"downvotes","type":"uint32","internalType":"uint32"}],"stateMutability":"view"},{"type":"function","name":"groupSubPostCounters","inputs":[{"name":"groupId","type":"uint256","internalType":"uint256"},{"name":"postIDCounter","type":"uint256","internalType":"uint256"}],"outputs":[{"name":"subPostIDCounter","type":"uint256","internalType":"uint256"}],"stateMutability":"view"},{"type":"function","name":"groups","inputs":[{"name":"","type":"uint256","internalType":"uint256"}],"outputs":[{"name":"","type":"uint256","internalType":"uint256"}],"stateMutability":"view"},{"type":"function","name":"isGroupMember","inputs":[{"name":"_groupId","type":"uint256","internalType":"uint256"},{"name":"_identityCommitment","type":"uint256","internalType":"uint256"}],"outputs":[{"name":"","type":"bool","internalType":"bool"}],"stateMutability":"view"},{"type":"function","name":"postSubPosts","inputs":[{"name":"groupId","type":"uint256","internalType":"uint256"},{"name":"ombuPostId","type":"uint256","internalType":"uint256"},{"name":"subPostId","type":"uint256","internalType":"uint256"}],"outputs":[{"name":"title","type":"string","internalType":"string"},{"name":"content","type":"string","internalType":"string"},{"name":"timestamp","type":"uint32","internalType":"uint32"},{"name":"upvotes","type":"uint32","internalType":"uint32"},{"name":"downvotes","type":"uint32","internalType":"uint32"}],"stateMutability":"view"},{"type":"function","name":"removeMember","inputs":[{"name":"_groupId","type":"uint256","internalType":"uint256"},{"name":"_identityCommitment","type":"uint256","internalType":"uint256"},{"name":"_merkleProofSiblings","type":"uint256[]","internalType":"uint256[]"}],"outputs":[],"stateMutability":"nonpayable"},{"type":"function","name":"semaphore","inputs":[],"outputs":[{"name":"","type":"address","internalType":"contract ISemaphore"}],"stateMutability":"view"},{"type":"function","name":"userPostVotes","inputs":[{"name":"identityCommitment","type":"uint256","internalType":"uint256"},{"name":"groupId","type":"uint256","internalType":"uint256"},{"name":"postId","type":"uint256","internalType":"uint256"}],"outputs":[{"name":"voteType","type":"uint8","internalType":"uint8"}],"stateMutability":"view"},{"type":"function","name":"userSubPostVotes","inputs":[{"name":"identityCommitment","type":"uint256","internalType":"uint256"},{"name":"groupId","type":"uint256","internalType":"uint256"},{"name":"postId","type":"uint256","internalType":"uint256"},{"name":"subPostId","type":"uint256","internalType":"uint256"}],"outputs":[{"name":"voteType","type":"uint8","internalType":"uint8"}],"stateMutability":"view"},{"type":"function","name":"voteOnPost","inputs":[{"name":"_groupId","type":"uint256","internalType":"uint256"},{"name":"_postId","type":"uint256","internalType":"uint256"},{"name":"_isUpvote","type":"bool","internalType":"bool"},{"name":"_identityCommitment","type":"uint256","internalType":"uint256"}],"outputs":[],"stateMutability":"nonpayable"},{"type":"function","name":"voteOnSubPost","inputs":[{"name":"_groupId","type":"uint256","internalType":"uint256"},{"name":"_postId","type":"uint256","internalType":"uint256"},{"name":"_subPostId","type":"uint256","internalType":"uint256"},{"name":"_isUpvote","type":"bool","internalType":"bool"},{"name":"_identityCommitment","type":"uint256","internalType":"uint256"}],"outputs":[],"stateMutability":"nonpayable"},{"type":"event","name":"change_Admin","inputs":[{"name":"_newAdmin","type":"address","indexed":false,"internalType":"address"}],"anonymous":false}],"bytecode":{"object":"0x608060405234801561000f575f5ffd5b506040516125e13803806125e183398101604081905261002e91610145565b5f80546001600160a01b0383166001600160a01b0319918216811783556002805490921633179091556040805163575185ed60e01b8152905163575185ed91600480820192602092909190829003018187875af1158015610091573d5f5f3e3d5ffd5b505050506040513d601f19601f820116820180604052508101906100b59190610172565b600180549192505f6100c683610189565b909155505060058054600181019091557f036b6384b5eca791c62761152d0c79bb0604c104a5fb6f4eb0703f3154bb3db001819055604080518082018252601081526f24b73b34b9b4b136329023b0b93232b760811b6020828101919091525f8481526006909152919091209061013d9082610245565b5050506102ff565b5f60208284031215610155575f5ffd5b81516001600160a01b038116811461016b575f5ffd5b9392505050565b5f60208284031215610182575f5ffd5b5051919050565b5f600182016101a657634e487b7160e01b5f52601160045260245ffd5b5060010190565b634e487b7160e01b5f52604160045260245ffd5b600181811c908216806101d557607f821691505b6020821081036101f357634e487b7160e01b5f52602260045260245ffd5b50919050565b601f82111561024057805f5260205f20601f840160051c8101602085101561021e5750805b601f840160051c820191505b8181101561023d575f815560010161022a565b50505b505050565b81516001600160401b0381111561025e5761025e6101ad565b6102728161026c84546101c1565b846101f9565b6020601f8211600181146102a4575f831561028d5750848201515b5f19600385901b1c1916600184901b17845561023d565b5f84815260208120601f198516915b828110156102d357878501518255602094850194600190920191016102b3565b50848210156102f057868401515f19600387901b60f8161c191681555b50505050600190811b01905550565b6122d58061030c5f395ff3fe608060405234801561000f575f5ffd5b5060043610610153575f3560e01c80638f283970116100bf578063d24924fe11610079578063d24924fe1461037c578063d6271edf14610385578063da3cda52146103a5578063dc2ddcae146103b8578063f851a440146103cb578063fb3d748d146103de575f5ffd5b80638f283970146102ee5780638f89921a1461030157806396324bd414610324578063aca35fc114610337578063bbff66f91461034a578063be0d93eb14610369575f5ffd5b8063561384f811610110578063561384f81461023c57806360326d5a1461024f5780636cdd32fe1461028b5780637627415a1461029e5780637b5d2534146102b1578063887a4318146102db575f5ffd5b8063095c7f28146101575780631783efc3146101845780631a7a3fc71461019957806343ec86ed146101de5780634521b1cb146101f157806349d3a50a14610229575b5f5ffd5b61016a6101653660046119f2565b6103f1565b60405161017b959493929190611a40565b60405180910390f35b6101976101923660046119f2565b610545565b005b6101cc6101a7366004611a8c565b600960209081525f938452604080852082529284528284209052825290205460ff1681565b60405160ff909116815260200161017b565b6101976101ec366004611ad0565b6105a9565b61021b6101ff3660046119f2565b600460209081525f928352604080842090915290825290205481565b60405190815260200161017b565b61016a610237366004611a8c565b6105e1565b61019761024a366004611afa565b61060c565b6101cc61025d366004611afa565b600a60209081525f948552604080862082529385528385208152918452828420909152825290205460ff1681565b610197610299366004611b29565b6108c1565b6101976102ac366004611bb8565b610931565b5f546102c3906001600160a01b031681565b6040516001600160a01b03909116815260200161017b565b6101976102e9366004611c4a565b610c20565b6101976102fc366004611d03565b610f54565b61031461030f3660046119f2565b610fb0565b604051901515815260200161017b565b61021b610332366004611d1c565b61102b565b610197610345366004611a8c565b61104a565b61021b610358366004611d1c565b60036020525f908152604090205481565b610197610377366004611d33565b6112d1565b61021b60015481565b610398610393366004611d1c565b6115dc565b60405161017b9190611d78565b6101976103b3366004611d1c565b611673565b61021b6103c6366004611d8a565b6116ce565b6002546102c3906001600160a01b031681565b6101976103ec366004611dc9565b6117b7565b600760209081525f928352604080842090915290825290208054819061041690611e78565b80601f016020809104026020016040519081016040528092919081815260200182805461044290611e78565b801561048d5780601f106104645761010080835404028352916020019161048d565b820191905f5260205f20905b81548152906001019060200180831161047057829003601f168201915b5050505050908060010180546104a290611e78565b80601f01602080910402602001604051908101604052809291908181526020018280546104ce90611e78565b80156105195780601f106104f057610100808354040283529160200191610519565b820191905f5260205f20905b8154815290600101906020018083116104fc57829003601f168201915b5050506002909301549192505063ffffffff80821691600160201b8104821691600160401b9091041685565b5f54604051631783efc360e01b815260048101849052602481018390526001600160a01b0390911690631783efc3906044015b5f604051808303815f87803b15801561058f575f5ffd5b505af11580156105a1573d5f5f3e3d5ffd5b505050505050565b5f54604051632b47741360e11b8152600481018490526001600160a01b0383811660248301529091169063568ee82690604401610578565b600860209081525f938452604080852082529284528284209052825290208054819061041690611e78565b5f8054604051632414275160e21b815260048101879052602481018490526001600160a01b03909116906390509d4490604401602060405180830381865afa15801561065a573d5f5f3e3d5ffd5b505050506040513d601f19601f8201168201806040525081019061067e9190611eb0565b9050806106a65760405162461bcd60e51b815260040161069d90611ed2565b60405180910390fd5b5f858152600860209081526040808320878452825280832086845290915281206002810154909163ffffffff909116900361071c5760405162461bcd60e51b815260206004820152601660248201527514dd58941bdcdd08191bd95cc81b9bdd08195e1a5cdd60521b604482015260640161069d565b5f838152600a602090815260408083208984528252808320888452825280832087845290915281205460ff16908190036107a35760405162461bcd60e51b815260206004820152602260248201527f5573657220686173206e6f7420766f746564206f6e207468697320737562706f6044820152611cdd60f21b606482015260840161069d565b8060ff1660010361081f576002820154600160201b900463ffffffff166107dc5760405162461bcd60e51b815260040161069d90611f13565b600282018054600160201b900463ffffffff169060046107fb83611f6a565b91906101000a81548163ffffffff021916908363ffffffff1602179055505061088c565b6002820154600160401b900463ffffffff1661084d5760405162461bcd60e51b815260040161069d90611f88565b600282018054600160401b900463ffffffff1690600861086c83611f6a565b91906101000a81548163ffffffff021916908363ffffffff160217905550505b5050505f908152600a60209081526040808320958352948152848220938252928352838120918152915220805460ff19169055565b6108c96119a8565b5f5460405163366e997f60e11b81526001600160a01b0390911690636cdd32fe906108fe908790879087908790600401611fcd565b5f604051808303815f87803b158015610915575f5ffd5b505af1158015610927573d5f5f3e3d5ffd5b5050505050505050565b5f8054604051632414275160e21b815260048101879052602481018490526001600160a01b03909116906390509d4490604401602060405180830381865afa15801561097f573d5f5f3e3d5ffd5b505050506040513d601f19601f820116820180604052508101906109a39190611eb0565b9050806109c25760405162461bcd60e51b815260040161069d90611ed2565b5f85815260076020908152604080832087845290915281206002810154909163ffffffff9091169003610a2d5760405162461bcd60e51b8152602060048201526013602482015272141bdcdd08191bd95cc81b9bdd08195e1a5cdd606a1b604482015260640161069d565b5f838152600960209081526040808320898452825280832088845290915281205460ff169085610a5e576002610a61565b60015b905060ff821615610b55578160ff16600103610ae8576002830154600160201b900463ffffffff16610aa55760405162461bcd60e51b815260040161069d90611f13565b600283018054600160201b900463ffffffff16906004610ac483611f6a565b91906101000a81548163ffffffff021916908363ffffffff16021790555050610b55565b6002830154600160401b900463ffffffff16610b165760405162461bcd60e51b815260040161069d90611f88565b600283018054600160401b900463ffffffff16906008610b3583611f6a565b91906101000a81548163ffffffff021916908363ffffffff160217905550505b8515610ba25760018360020160048282829054906101000a900463ffffffff16610b7f9190612014565b92506101000a81548163ffffffff021916908363ffffffff160217905550610be5565b60018360020160088282829054906101000a900463ffffffff16610bc69190612014565b92506101000a81548163ffffffff021916908363ffffffff1602179055505b5f9485526009602090815260408087209987529881528886209786529690965250505092909220805460ff191660ff90921691909117905550565b5f6040518060c001604052808b81526020018a81526020018981526020018881526020018d81526020018360088060200260405190810160405280929190826008602002808284375f9201829052509290935250546040516308ade83160e31b81529293506001600160a01b03169163456f41889150610ca6908f908590600401612030565b602060405180830381865afa158015610cc1573d5f5f3e3d5ffd5b505050506040513d601f19601f82011682018060405250810190610ce59190611eb0565b610d2c5760405162461bcd60e51b815260206004820152601860248201527729b2b6b0b83437b9329d1024b73b30b634b210383937b7b360411b604482015260640161069d565b5f8c81526007602090815260408083208e845290915281206002015463ffffffff169003610d9c5760405162461bcd60e51b815260206004820152601860248201527f4d61696e20506f737420646f6573206e6f742065786973740000000000000000604482015260640161069d565b5f8c81526004602090815260408083208e845290915290205480610dbf8161209e565b9150508060045f8f81526020019081526020015f205f8e81526020019081526020015f20819055506040518060a0016040528088888080601f0160208091040260200160405190810160405280939291908181526020018383808284375f92019190915250505090825250604080516020601f8901819004810282018101909252878152918101919088908890819084018382808284375f81840152601f19601f8201169050808301925050505050505081526020014263ffffffff1681526020015f63ffffffff1681526020015f63ffffffff1681525060085f8f81526020019081526020015f205f8e81526020019081526020015f205f8381526020019081526020015f205f820151815f019081610ed99190612113565b5060208201516001820190610eee9082612113565b50604082015160029091018054606084015160809094015163ffffffff908116600160401b026bffffffff000000000000000019958216600160201b0267ffffffffffffffff199093169190941617179290921617905550505050505050505050505050565b610f5c6119a8565b600280546001600160a01b0319166001600160a01b0383169081179091556040519081527fc815d89d975fdb1cd9acd263359f94e17450afcac27532c7872f6a752728a7299060200160405180910390a150565b5f8054604051632414275160e21b815260048101859052602481018490526001600160a01b03909116906390509d4490604401602060405180830381865afa158015610ffe573d5f5f3e3d5ffd5b505050506040513d601f19601f820116820180604052508101906110229190611eb0565b90505b92915050565b6005818154811061103a575f80fd5b5f91825260209091200154905081565b5f8054604051632414275160e21b815260048101869052602481018490526001600160a01b03909116906390509d4490604401602060405180830381865afa158015611098573d5f5f3e3d5ffd5b505050506040513d601f19601f820116820180604052508101906110bc9190611eb0565b9050806110db5760405162461bcd60e51b815260040161069d90611ed2565b5f84815260076020908152604080832086845290915281206002810154909163ffffffff90911690036111465760405162461bcd60e51b8152602060048201526013602482015272141bdcdd08191bd95cc81b9bdd08195e1a5cdd606a1b604482015260640161069d565b5f838152600960209081526040808320888452825280832087845290915281205460ff16908190036111ba5760405162461bcd60e51b815260206004820152601f60248201527f5573657220686173206e6f7420766f746564206f6e207468697320706f737400604482015260640161069d565b8060ff16600103611236576002820154600160201b900463ffffffff166111f35760405162461bcd60e51b815260040161069d90611f13565b600282018054600160201b900463ffffffff1690600461121283611f6a565b91906101000a81548163ffffffff021916908363ffffffff160217905550506112a3565b6002820154600160401b900463ffffffff166112645760405162461bcd60e51b815260040161069d90611f88565b600282018054600160401b900463ffffffff1690600861128383611f6a565b91906101000a81548163ffffffff021916908363ffffffff160217905550505b5050505f9081526009602090815260408083209483529381528382209282529190915220805460ff19169055565b5f8054604051632414275160e21b815260048101889052602481018490526001600160a01b03909116906390509d4490604401602060405180830381865afa15801561131f573d5f5f3e3d5ffd5b505050506040513d601f19601f820116820180604052508101906113439190611eb0565b9050806113625760405162461bcd60e51b815260040161069d90611ed2565b5f868152600860209081526040808320888452825280832087845290915281206002810154909163ffffffff90911690036113d85760405162461bcd60e51b815260206004820152601660248201527514dd58941bdcdd08191bd95cc81b9bdd08195e1a5cdd60521b604482015260640161069d565b5f838152600a602090815260408083208a84528252808320898452825280832088845290915281205460ff169085611411576002611414565b60015b905060ff821615611508578160ff1660010361149b576002830154600160201b900463ffffffff166114585760405162461bcd60e51b815260040161069d90611f13565b600283018054600160201b900463ffffffff1690600461147783611f6a565b91906101000a81548163ffffffff021916908363ffffffff16021790555050611508565b6002830154600160401b900463ffffffff166114c95760405162461bcd60e51b815260040161069d90611f88565b600283018054600160401b900463ffffffff169060086114e883611f6a565b91906101000a81548163ffffffff021916908363ffffffff160217905550505b85156115555760018360020160048282829054906101000a900463ffffffff166115329190612014565b92506101000a81548163ffffffff021916908363ffffffff160217905550611598565b60018360020160088282829054906101000a900463ffffffff166115799190612014565b92506101000a81548163ffffffff021916908363ffffffff1602179055505b5f948552600a602090815260408087209a875299815289862098865297885288852096855295909652505093909320805460ff191660ff9092169190911790555050565b60066020525f9081526040902080546115f490611e78565b80601f016020809104026020016040519081016040528092919081815260200182805461162090611e78565b801561166b5780601f106116425761010080835404028352916020019161166b565b820191905f5260205f20905b81548152906001019060200180831161164e57829003601f168201915b505050505081565b5f54604051636d1e6d2960e11b8152600481018390526001600160a01b039091169063da3cda52906024015f604051808303815f87803b1580156116b5575f5ffd5b505af11580156116c7573d5f5f3e3d5ffd5b5050505050565b5f6116d76119a8565b5f5f5f9054906101000a90046001600160a01b03166001600160a01b031663575185ed6040518163ffffffff1660e01b81526004016020604051808303815f875af1158015611728573d5f5f3e3d5ffd5b505050506040513d601f19601f8201168201806040525081019061174c91906121ce565b5f8181526006602052604090209091506117678486836121e5565b5060018054905f6117778361209e565b9091555050600580546001810182555f919091527f036b6384b5eca791c62761152d0c79bb0604c104a5fb6f4eb0703f3154bb3db0018190559392505050565b5f6040518060c001604052808b81526020018a81526020018981526020018881526020018c81526020018360088060200260405190810160405280929190826008602002808284375f9201829052509290935250546040516308ade83160e31b81529293506001600160a01b03169163456f4188915061183d908e908590600401612030565b602060405180830381865afa158015611858573d5f5f3e3d5ffd5b505050506040513d601f19601f8201168201806040525081019061187c9190611eb0565b6118c35760405162461bcd60e51b815260206004820152601860248201527729b2b6b0b83437b9329d1024b73b30b634b210383937b7b360411b604482015260640161069d565b6040805160c06020601f8901819004028201810190925260a081018781525f928291908a908a90819085018382808284375f92019190915250505090825250604080516020601f8901819004810282018101909252878152918101919088908890819084018382808284375f92018290525093855250505063ffffffff4216602080840191909152604080840183905260609093018290528f8252600390522054909150806119718161209e565b5f8f81526003602090815260408083208490556007825280832084845290915290208451919350849250908190610ed99082612113565b6002546001600160a01b031633146119f05760405162461bcd60e51b815260206004820152600b60248201526a139bdd08105b1b1bddd95960aa1b604482015260640161069d565b565b5f5f60408385031215611a03575f5ffd5b50508035926020909101359150565b5f81518084528060208401602086015e5f602082860101526020601f19601f83011685010191505092915050565b60a081525f611a5260a0830188611a12565b8281036020840152611a648188611a12565b63ffffffff968716604085015294861660608401525050921660809092019190915292915050565b5f5f5f60608486031215611a9e575f5ffd5b505081359360208301359350604090920135919050565b80356001600160a01b0381168114611acb575f5ffd5b919050565b5f5f60408385031215611ae1575f5ffd5b82359150611af160208401611ab5565b90509250929050565b5f5f5f5f60808587031215611b0d575f5ffd5b5050823594602084013594506040840135936060013592509050565b5f5f5f5f60608587031215611b3c575f5ffd5b8435935060208501359250604085013567ffffffffffffffff811115611b60575f5ffd5b8501601f81018713611b70575f5ffd5b803567ffffffffffffffff811115611b86575f5ffd5b8760208260051b8401011115611b9a575f5ffd5b949793965060200194505050565b8015158114611bb5575f5ffd5b50565b5f5f5f5f60808587031215611bcb575f5ffd5b84359350602085013592506040850135611be481611ba8565b9396929550929360600135925050565b5f5f83601f840112611c04575f5ffd5b50813567ffffffffffffffff811115611c1b575f5ffd5b602083019150836020828501011115611c32575f5ffd5b9250929050565b806101008101831015611025575f5ffd5b5f5f5f5f5f5f5f5f5f5f5f6102008c8e031215611c65575f5ffd5b8b359a5060208c0135995060408c0135985060608c0135975060808c0135965060a08c0135955060c08c013567ffffffffffffffff811115611ca5575f5ffd5b611cb18e828f01611bf4565b90965094505060e08c013567ffffffffffffffff811115611cd0575f5ffd5b611cdc8e828f01611bf4565b9094509250611cf190508d6101008e01611c39565b90509295989b509295989b9093969950565b5f60208284031215611d13575f5ffd5b61102282611ab5565b5f60208284031215611d2c575f5ffd5b5035919050565b5f5f5f5f5f60a08688031215611d47575f5ffd5b8535945060208601359350604086013592506060860135611d6781611ba8565b949793965091946080013592915050565b602081525f6110226020830184611a12565b5f5f60208385031215611d9b575f5ffd5b823567ffffffffffffffff811115611db1575f5ffd5b611dbd85828601611bf4565b90969095509350505050565b5f5f5f5f5f5f5f5f5f5f6101e08b8d031215611de3575f5ffd5b8a35995060208b0135985060408b0135975060608b0135965060808b0135955060a08b013567ffffffffffffffff811115611e1c575f5ffd5b611e288d828e01611bf4565b90965094505060c08b013567ffffffffffffffff811115611e47575f5ffd5b611e538d828e01611bf4565b9094509250611e6790508c60e08d01611c39565b90509295989b9194979a5092959850565b600181811c90821680611e8c57607f821691505b602082108103611eaa57634e487b7160e01b5f52602260045260245ffd5b50919050565b5f60208284031215611ec0575f5ffd5b8151611ecb81611ba8565b9392505050565b60208082526021908201527f55736572206973206e6f742061206d656d626572206f66207468652067726f756040820152600760fc1b606082015260800190565b60208082526023908201527f43616e6e6f742064656372656d656e74207570766f7465732062656c6f77207a60408201526265726f60e81b606082015260800190565b634e487b7160e01b5f52601160045260245ffd5b5f63ffffffff821680611f7f57611f7f611f56565b5f190192915050565b60208082526025908201527f43616e6e6f742064656372656d656e7420646f776e766f7465732062656c6f77604082015264207a65726f60d81b606082015260800190565b8481526020810184905260606040820181905281018290525f6001600160fb1b03831115611ff9575f5ffd5b8260051b808560808501379190910160800195945050505050565b63ffffffff818116838216019081111561102557611025611f56565b5f6101c08201905083825282516020830152602083015160408301526040830151606083015260608301516080830152608083015160a083015260a083015160c083015f5b6008811015612094578251825260209283019290910190600101612075565b5050509392505050565b5f600182016120af576120af611f56565b5060010190565b634e487b7160e01b5f52604160045260245ffd5b601f82111561210e57805f5260205f20601f840160051c810160208510156120ef5750805b601f840160051c820191505b818110156116c7575f81556001016120fb565b505050565b815167ffffffffffffffff81111561212d5761212d6120b6565b6121418161213b8454611e78565b846120ca565b6020601f821160018114612173575f831561215c5750848201515b5f19600385901b1c1916600184901b1784556116c7565b5f84815260208120601f198516915b828110156121a25787850151825560209485019460019092019101612182565b50848210156121bf57868401515f19600387901b60f8161c191681555b50505050600190811b01905550565b5f602082840312156121de575f5ffd5b5051919050565b67ffffffffffffffff8311156121fd576121fd6120b6565b6122118361220b8354611e78565b836120ca565b5f601f841160018114612242575f851561222b5750838201355b5f19600387901b1c1916600186901b1783556116c7565b5f83815260208120601f198716915b828110156122715786850135825560209485019460019092019101612251565b508682101561228d575f1960f88860031b161c19848701351681555b505060018560011b018355505050505056fea2646970667358221220dcbaa05c7d7d613b3767cd610203849e73b95664830622d5ad4626cf48fea9a664736f6c634300081c0033","linkReferences":{}},"methodIdentifiers":{"acceptGroupAdmin(uint256)":"da3cda52","addMember(uint256,uint256)":"1783efc3","admin()":"f851a440","changeAdmin(address)":"8f283970","changeGroupAdmin(uint256,address)":"43ec86ed","createGroup(string)":"dc2ddcae","createMainPost(uint256,uint256,uint256,uint256,uint256,string,string,uint256[8])":"fb3d748d","createSubPost(uint256,uint256,uint256,uint256,uint256,uint256,string,string,uint256[8])":"887a4318","deleteVoteOnPost(uint256,uint256,uint256)":"aca35fc1","deleteVoteOnSubPost(uint256,uint256,uint256,uint256)":"561384f8","groupCounter()":"d24924fe","groupNames(uint256)":"d6271edf","groupPostCounters(uint256)":"bbff66f9","groupPosts(uint256,uint256)":"095c7f28","groupSubPostCounters(uint256,uint256)":"4521b1cb","groups(uint256)":"96324bd4","isGroupMember(uint256,uint256)":"8f89921a","postSubPosts(uint256,uint256,uint256)":"49d3a50a","removeMember(uint256,uint256,uint256[])":"6cdd32fe","semaphore()":"7b5d2534","userPostVotes(uint256,uint256,uint256)":"1a7a3fc7","userSubPostVotes(uint256,uint256,uint256,uint256)":"60326d5a","voteOnPost(uint256,uint256,bool,uint256)":"7627415a","voteOnSubPost(uint256,uint256,uint256,bool,uint256)":"be0d93eb"},"id":17}