{"abi":[{"type":"constructor","inputs":[{"name":"_semaphoreAddress","type":"address","internalType":"address"},{"name":"_ombuAdmin","type":"address","internalType":"address"}],"stateMutability":"nonpayable"},{"type":"function","name":"acceptGroupAdmin","inputs":[{"name":"_groupId","type":"uint256","internalType":"uint256"}],"outputs":[],"stateMutability":"nonpayable"},{"type":"function","name":"addMember","inputs":[{"name":"_groupId","type":"uint256","internalType":"uint256"},{"name":"_identityCommitment","type":"uint256","internalType":"uint256"}],"outputs":[],"stateMutability":"nonpayable"},{"type":"function","name":"admin","inputs":[],"outputs":[{"name":"","type":"address","internalType":"address"}],"stateMutability":"view"},{"type":"function","name":"changeAdmin","inputs":[{"name":"_newAdmin","type":"address","internalType":"address"}],"outputs":[],"stateMutability":"nonpayable"},{"type":"function","name":"changeGroupAdmin","inputs":[{"name":"_groupId","type":"uint256","internalType":"uint256"},{"name":"_newAdmin","type":"address","internalType":"address"}],"outputs":[],"stateMutability":"nonpayable"},{"type":"function","name":"createGroup","inputs":[{"name":"_name","type":"string","internalType":"string"}],"outputs":[{"name":"","type":"uint256","internalType":"uint256"}],"stateMutability":"nonpayable"},{"type":"function","name":"createMainPost","inputs":[{"name":"_groupId","type":"uint256","internalType":"uint256"},{"name":"_content","type":"string","internalType":"string"}],"outputs":[],"stateMutability":"nonpayable"},{"type":"function","name":"createSubPost","inputs":[{"name":"_groupId","type":"uint256","internalType":"uint256"},{"name":"_mainPostId","type":"uint256","internalType":"uint256"},{"name":"_content","type":"string","internalType":"string"}],"outputs":[],"stateMutability":"nonpayable"},{"type":"function","name":"deleteVoteOnPost","inputs":[{"name":"_groupId","type":"uint256","internalType":"uint256"},{"name":"_postId","type":"uint256","internalType":"uint256"},{"name":"_isUpvote","type":"bool","internalType":"bool"}],"outputs":[],"stateMutability":"nonpayable"},{"type":"function","name":"deleteVoteOnSubPost","inputs":[{"name":"_groupId","type":"uint256","internalType":"uint256"},{"name":"_postId","type":"uint256","internalType":"uint256"},{"name":"_subPostId","type":"uint256","internalType":"uint256"},{"name":"_isUpvote","type":"bool","internalType":"bool"}],"outputs":[],"stateMutability":"nonpayable"},{"type":"function","name":"groupCounter","inputs":[],"outputs":[{"name":"","type":"uint256","internalType":"uint256"}],"stateMutability":"view"},{"type":"function","name":"groupNames","inputs":[{"name":"groupId","type":"uint256","internalType":"uint256"}],"outputs":[{"name":"name","type":"string","internalType":"string"}],"stateMutability":"view"},{"type":"function","name":"groupPostCounters","inputs":[{"name":"groupId","type":"uint256","internalType":"uint256"}],"outputs":[{"name":"postIDCounter","type":"uint256","internalType":"uint256"}],"stateMutability":"view"},{"type":"function","name":"groupPosts","inputs":[{"name":"groupId","type":"uint256","internalType":"uint256"},{"name":"ombuPostId","type":"uint256","internalType":"uint256"}],"outputs":[{"name":"author","type":"address","internalType":"address"},{"name":"content","type":"string","internalType":"string"},{"name":"timestamp","type":"uint32","internalType":"uint32"},{"name":"upvotes","type":"uint32","internalType":"uint32"},{"name":"downvotes","type":"uint32","internalType":"uint32"}],"stateMutability":"view"},{"type":"function","name":"groups","inputs":[{"name":"","type":"uint256","internalType":"uint256"}],"outputs":[{"name":"","type":"uint256","internalType":"uint256"}],"stateMutability":"view"},{"type":"function","name":"isGroupMember","inputs":[{"name":"_groupId","type":"uint256","internalType":"uint256"},{"name":"_identityCommitment","type":"uint256","internalType":"uint256"}],"outputs":[{"name":"","type":"bool","internalType":"bool"}],"stateMutability":"view"},{"type":"function","name":"postSubPosts","inputs":[{"name":"groupId","type":"uint256","internalType":"uint256"},{"name":"ombuPostId","type":"uint256","internalType":"uint256"},{"name":"subPostId","type":"uint256","internalType":"uint256"}],"outputs":[{"name":"author","type":"address","internalType":"address"},{"name":"content","type":"string","internalType":"string"},{"name":"timestamp","type":"uint32","internalType":"uint32"},{"name":"upvotes","type":"uint32","internalType":"uint32"},{"name":"downvotes","type":"uint32","internalType":"uint32"}],"stateMutability":"view"},{"type":"function","name":"removeMember","inputs":[{"name":"_groupId","type":"uint256","internalType":"uint256"},{"name":"_identityCommitment","type":"uint256","internalType":"uint256"},{"name":"_merkleProofSiblings","type":"uint256[]","internalType":"uint256[]"}],"outputs":[],"stateMutability":"nonpayable"},{"type":"function","name":"semaphore","inputs":[],"outputs":[{"name":"","type":"address","internalType":"contract ISemaphore"}],"stateMutability":"view"},{"type":"function","name":"userPostVotes","inputs":[{"name":"user","type":"address","internalType":"address"},{"name":"groupId","type":"uint256","internalType":"uint256"},{"name":"postId","type":"uint256","internalType":"uint256"}],"outputs":[{"name":"hasVoted","type":"bool","internalType":"bool"}],"stateMutability":"view"},{"type":"function","name":"userSubPostVotes","inputs":[{"name":"user","type":"address","internalType":"address"},{"name":"groupId","type":"uint256","internalType":"uint256"},{"name":"postId","type":"uint256","internalType":"uint256"},{"name":"subPostId","type":"uint256","internalType":"uint256"}],"outputs":[{"name":"hasVoted","type":"bool","internalType":"bool"}],"stateMutability":"view"},{"type":"function","name":"voteOnPost","inputs":[{"name":"_groupId","type":"uint256","internalType":"uint256"},{"name":"_postId","type":"uint256","internalType":"uint256"},{"name":"_isUpvote","type":"bool","internalType":"bool"}],"outputs":[],"stateMutability":"nonpayable"},{"type":"function","name":"voteOnSubPost","inputs":[{"name":"_groupId","type":"uint256","internalType":"uint256"},{"name":"_postId","type":"uint256","internalType":"uint256"},{"name":"_subPostId","type":"uint256","internalType":"uint256"},{"name":"_isUpvote","type":"bool","internalType":"bool"}],"outputs":[],"stateMutability":"nonpayable"},{"type":"event","name":"change_Admin","inputs":[{"name":"_newAdmin","type":"address","indexed":false,"internalType":"address"}],"anonymous":false}],"bytecode":{"object":"0x608060405234801561000f575f5ffd5b5060405161347f38038061347f83398181016040528101906100319190610243565b815f5f6101000a81548173ffffffffffffffffffffffffffffffffffffffff021916908373ffffffffffffffffffffffffffffffffffffffff1602179055503360025f6101000a81548173ffffffffffffffffffffffffffffffffffffffff021916908373ffffffffffffffffffffffffffffffffffffffff1602179055505f5f5f9054906101000a900473ffffffffffffffffffffffffffffffffffffffff1673ffffffffffffffffffffffffffffffffffffffff16635c3f3b60836040518263ffffffff1660e01b815260040161010a9190610290565b6020604051808303815f875af1158015610126573d5f5f3e3d5ffd5b505050506040513d601f19601f8201168201806040525081019061014a91906102dc565b905060015f81548092919061015e90610334565b9190505550600481908060018154018082558091505060019003905f5260205f20015f90919091909150556040518060400160405280601081526020017f496e76697369626c652047617264656e0000000000000000000000000000000081525060055f8381526020019081526020015f2090816101dc91906105af565b5050505061067e565b5f5ffd5b5f73ffffffffffffffffffffffffffffffffffffffff82169050919050565b5f610212826101e9565b9050919050565b61022281610208565b811461022c575f5ffd5b50565b5f8151905061023d81610219565b92915050565b5f5f60408385031215610259576102586101e5565b5b5f6102668582860161022f565b92505060206102778582860161022f565b9150509250929050565b61028a81610208565b82525050565b5f6020820190506102a35f830184610281565b92915050565b5f819050919050565b6102bb816102a9565b81146102c5575f5ffd5b50565b5f815190506102d6816102b2565b92915050565b5f602082840312156102f1576102f06101e5565b5b5f6102fe848285016102c8565b91505092915050565b7f4e487b71000000000000000000000000000000000000000000000000000000005f52601160045260245ffd5b5f61033e826102a9565b91507fffffffffffffffffffffffffffffffffffffffffffffffffffffffffffffffff82036103705761036f610307565b5b600182019050919050565b5f81519050919050565b7f4e487b71000000000000000000000000000000000000000000000000000000005f52604160045260245ffd5b7f4e487b71000000000000000000000000000000000000000000000000000000005f52602260045260245ffd5b5f60028204905060018216806103f657607f821691505b602082108103610409576104086103b2565b5b50919050565b5f819050815f5260205f209050919050565b5f6020601f8301049050919050565b5f82821b905092915050565b5f6008830261046b7fffffffffffffffffffffffffffffffffffffffffffffffffffffffffffffffff82610430565b6104758683610430565b95508019841693508086168417925050509392505050565b5f819050919050565b5f6104b06104ab6104a6846102a9565b61048d565b6102a9565b9050919050565b5f819050919050565b6104c983610496565b6104dd6104d5826104b7565b84845461043c565b825550505050565b5f5f905090565b6104f46104e5565b6104ff8184846104c0565b505050565b5b81811015610522576105175f826104ec565b600181019050610505565b5050565b601f821115610567576105388161040f565b61054184610421565b81016020851015610550578190505b61056461055c85610421565b830182610504565b50505b505050565b5f82821c905092915050565b5f6105875f198460080261056c565b1980831691505092915050565b5f61059f8383610578565b9150826002028217905092915050565b6105b88261037b565b67ffffffffffffffff8111156105d1576105d0610385565b5b6105db82546103df565b6105e6828285610526565b5f60209050601f831160018114610617575f8415610605578287015190505b61060f8582610594565b865550610676565b601f1984166106258661040f565b5f5b8281101561064c57848901518255600182019150602085019450602081019050610627565b868310156106695784890151610665601f891682610578565b8355505b6001600288020188555050505b505050505050565b612df48061068b5f395ff3fe608060405234801561000f575f5ffd5b506004361061014b575f3560e01c80638f283970116100c1578063d24924fe1161007a578063d24924fe146103ad578063d4d59e83146103cb578063d6271edf146103fb578063da3cda521461042b578063dc2ddcae14610447578063f851a440146104775761014b565b80638f283970146102b55780638f89921a146102d157806396324bd4146103015780639db2cb8214610331578063bbff66f914610361578063c2d4ccc8146103915761014b565b806346dbd6cd1161011357806346dbd6cd146101f357806349d3a50a1461020f57806366efb926146102435780636cdd32fe1461025f5780636cff15cc1461027b5780637b5d2534146102975761014b565b8063095c7f281461014f5780630a3d1f8a146101835780630b2791711461019f5780631783efc3146101bb57806343ec86ed146101d7575b5f5ffd5b61016960048036038101906101649190611ca6565b610495565b60405161017a959493929190611db1565b60405180910390f35b61019d60048036038101906101989190611e3e565b6105a6565b005b6101b960048036038101906101b49190611e8e565b61080f565b005b6101d560048036038101906101d09190611ca6565b610aa6565b005b6101f160048036038101906101ec9190611f1c565b610b32565b005b61020d60048036038101906102089190611e3e565b610bbe565b005b61022960048036038101906102249190611f5a565b610e27565b60405161023a959493929190611db1565b60405180910390f35b61025d6004803603810190610258919061200b565b610f43565b005b610279600480360381019061027491906120d1565b61119a565b005b61029560048036038101906102909190612142565b6112bb565b005b61029f611482565b6040516102ac91906121fa565b60405180910390f35b6102cf60048036038101906102ca9190612213565b6114a6565b005b6102eb60048036038101906102e69190611ca6565b6115af565b6040516102f8919061224d565b60405180910390f35b61031b60048036038101906103169190612266565b611652565b60405161032891906122a0565b60405180910390f35b61034b600480360381019061034691906122b9565b611672565b604051610358919061224d565b60405180910390f35b61037b60048036038101906103769190612266565b6116a7565b60405161038891906122a0565b60405180910390f35b6103ab60048036038101906103a69190611e8e565b6116bc565b005b6103b5611953565b6040516103c291906122a0565b60405180910390f35b6103e560048036038101906103e09190612309565b611959565b6040516103f2919061224d565b60405180910390f35b61041560048036038101906104109190612266565b611999565b604051610422919061236d565b60405180910390f35b61044560048036038101906104409190612266565b611a34565b005b610461600480360381019061045c919061238d565b611abd565b60405161046e91906122a0565b60405180910390f35b61047f611c46565b60405161048c91906123d8565b60405180910390f35b6006602052815f5260405f20602052805f5260405f205f9150915050805f015f9054906101000a900473ffffffffffffffffffffffffffffffffffffffff16908060010180546104e49061241e565b80601f01602080910402602001604051908101604052809291908181526020018280546105109061241e565b801561055b5780601f106105325761010080835404028352916020019161055b565b820191905f5260205f20905b81548152906001019060200180831161053e57829003601f168201915b505050505090806002015f9054906101000a900463ffffffff16908060020160049054906101000a900463ffffffff16908060020160089054906101000a900463ffffffff16905085565b5f60065f8581526020019081526020015f205f8481526020019081526020015f2090505f73ffffffffffffffffffffffffffffffffffffffff16815f015f9054906101000a900473ffffffffffffffffffffffffffffffffffffffff1673ffffffffffffffffffffffffffffffffffffffff1603610659576040517f08c379a000000000000000000000000000000000000000000000000000000000815260040161065090612498565b60405180910390fd5b5f60085f3373ffffffffffffffffffffffffffffffffffffffff1673ffffffffffffffffffffffffffffffffffffffff1681526020019081526020015f205f8681526020019081526020015f205f8581526020019081526020015f205f9054906101000a900460ff16905080610704576040517f08c379a00000000000000000000000000000000000000000000000000000000081526004016106fb90612500565b60405180910390fd5b82156107525781600201600481819054906101000a900463ffffffff168092919061072e9061254b565b91906101000a81548163ffffffff021916908363ffffffff16021790555050610796565b81600201600881819054906101000a900463ffffffff16809291906107769061254b565b91906101000a81548163ffffffff021916908363ffffffff160217905550505b5f60085f3373ffffffffffffffffffffffffffffffffffffffff1673ffffffffffffffffffffffffffffffffffffffff1681526020019081526020015f205f8781526020019081526020015f205f8681526020019081526020015f205f6101000a81548160ff0219169083151502179055505050505050565b5f60075f8681526020019081526020015f205f8581526020019081526020015f205f8481526020019081526020015f2090505f73ffffffffffffffffffffffffffffffffffffffff16815f015f9054906101000a900473ffffffffffffffffffffffffffffffffffffffff1673ffffffffffffffffffffffffffffffffffffffff16036108d1576040517f08c379a00000000000000000000000000000000000000000000000000000000081526004016108c8906125bc565b60405180910390fd5b5f60095f3373ffffffffffffffffffffffffffffffffffffffff1673ffffffffffffffffffffffffffffffffffffffff1681526020019081526020015f205f8781526020019081526020015f205f8681526020019081526020015f205f8581526020019081526020015f205f9054906101000a900460ff1690508061098b576040517f08c379a00000000000000000000000000000000000000000000000000000000081526004016109829061264a565b60405180910390fd5b82156109d95781600201600481819054906101000a900463ffffffff16809291906109b59061254b565b91906101000a81548163ffffffff021916908363ffffffff16021790555050610a1d565b81600201600881819054906101000a900463ffffffff16809291906109fd9061254b565b91906101000a81548163ffffffff021916908363ffffffff160217905550505b5f60095f3373ffffffffffffffffffffffffffffffffffffffff1673ffffffffffffffffffffffffffffffffffffffff1681526020019081526020015f205f8881526020019081526020015f205f8781526020019081526020015f205f8681526020019081526020015f205f6101000a81548160ff021916908315150217905550505050505050565b5f5f9054906101000a900473ffffffffffffffffffffffffffffffffffffffff1673ffffffffffffffffffffffffffffffffffffffff16631783efc383836040518363ffffffff1660e01b8152600401610b01929190612668565b5f604051808303815f87803b158015610b18575f5ffd5b505af1158015610b2a573d5f5f3e3d5ffd5b505050505050565b5f5f9054906101000a900473ffffffffffffffffffffffffffffffffffffffff1673ffffffffffffffffffffffffffffffffffffffff1663568ee82683836040518363ffffffff1660e01b8152600401610b8d92919061268f565b5f604051808303815f87803b158015610ba4575f5ffd5b505af1158015610bb6573d5f5f3e3d5ffd5b505050505050565b5f60065f8581526020019081526020015f205f8481526020019081526020015f2090505f73ffffffffffffffffffffffffffffffffffffffff16815f015f9054906101000a900473ffffffffffffffffffffffffffffffffffffffff1673ffffffffffffffffffffffffffffffffffffffff1603610c71576040517f08c379a0000000000000000000000000000000000000000000000000000000008152600401610c6890612498565b60405180910390fd5b5f60085f3373ffffffffffffffffffffffffffffffffffffffff1673ffffffffffffffffffffffffffffffffffffffff1681526020019081526020015f205f8681526020019081526020015f205f8581526020019081526020015f205f9054906101000a900460ff1690508015610d1d576040517f08c379a0000000000000000000000000000000000000000000000000000000008152600401610d1490612726565b60405180910390fd5b8215610d6a5760018260020160048282829054906101000a900463ffffffff16610d479190612744565b92506101000a81548163ffffffff021916908363ffffffff160217905550610dad565b60018260020160088282829054906101000a900463ffffffff16610d8e9190612744565b92506101000a81548163ffffffff021916908363ffffffff1602179055505b600160085f3373ffffffffffffffffffffffffffffffffffffffff1673ffffffffffffffffffffffffffffffffffffffff1681526020019081526020015f205f8781526020019081526020015f205f8681526020019081526020015f205f6101000a81548160ff0219169083151502179055505050505050565b6007602052825f5260405f20602052815f5260405f20602052805f5260405f205f925092505050805f015f9054906101000a900473ffffffffffffffffffffffffffffffffffffffff1690806001018054610e819061241e565b80601f0160208091040260200160405190810160405280929190818152602001828054610ead9061241e565b8015610ef85780601f10610ecf57610100808354040283529160200191610ef8565b820191905f5260205f20905b815481529060010190602001808311610edb57829003601f168201915b505050505090806002015f9054906101000a900463ffffffff16908060020160049054906101000a900463ffffffff16908060020160089054906101000a900463ffffffff16905085565b5f60065f8681526020019081526020015f205f8581526020019081526020015f2090505f73ffffffffffffffffffffffffffffffffffffffff16815f015f9054906101000a900473ffffffffffffffffffffffffffffffffffffffff1673ffffffffffffffffffffffffffffffffffffffff1603610ff6576040517f08c379a0000000000000000000000000000000000000000000000000000000008152600401610fed906127c5565b60405180910390fd5b5f6040518060a001604052803373ffffffffffffffffffffffffffffffffffffffff16815260200185858080601f0160208091040260200160405190810160405280939291908181526020018383808284375f81840152601f19601f8201169050808301925050505050505081526020014263ffffffff1681526020015f63ffffffff1681526020015f63ffffffff1681525090505f600190508160075f8981526020019081526020015f205f8881526020019081526020015f205f8381526020019081526020015f205f820151815f015f6101000a81548173ffffffffffffffffffffffffffffffffffffffff021916908373ffffffffffffffffffffffffffffffffffffffff160217905550602082015181600101908161111991906129a7565b506040820151816002015f6101000a81548163ffffffff021916908363ffffffff16021790555060608201518160020160046101000a81548163ffffffff021916908363ffffffff16021790555060808201518160020160086101000a81548163ffffffff021916908363ffffffff16021790555090505050505050505050565b60025f9054906101000a900473ffffffffffffffffffffffffffffffffffffffff1673ffffffffffffffffffffffffffffffffffffffff163373ffffffffffffffffffffffffffffffffffffffff1614611229576040517f08c379a000000000000000000000000000000000000000000000000000000000815260040161122090612ac0565b60405180910390fd5b5f5f9054906101000a900473ffffffffffffffffffffffffffffffffffffffff1673ffffffffffffffffffffffffffffffffffffffff16636cdd32fe858585856040518563ffffffff1660e01b81526004016112889493929190612b56565b5f604051808303815f87803b15801561129f575f5ffd5b505af11580156112b1573d5f5f3e3d5ffd5b5050505050505050565b5f6040518060a001604052803373ffffffffffffffffffffffffffffffffffffffff16815260200184848080601f0160208091040260200160405190810160405280939291908181526020018383808284375f81840152601f19601f8201169050808301925050505050505081526020014263ffffffff1681526020015f63ffffffff1681526020015f63ffffffff1681525090505f60035f8681526020019081526020015f20549050808061137090612b94565b9150508060035f8781526020019081526020015f20819055508160065f8781526020019081526020015f205f8381526020019081526020015f205f820151815f015f6101000a81548173ffffffffffffffffffffffffffffffffffffffff021916908373ffffffffffffffffffffffffffffffffffffffff160217905550602082015181600101908161140391906129a7565b506040820151816002015f6101000a81548163ffffffff021916908363ffffffff16021790555060608201518160020160046101000a81548163ffffffff021916908363ffffffff16021790555060808201518160020160086101000a81548163ffffffff021916908363ffffffff1602179055509050505050505050565b5f5f9054906101000a900473ffffffffffffffffffffffffffffffffffffffff1681565b60025f9054906101000a900473ffffffffffffffffffffffffffffffffffffffff1673ffffffffffffffffffffffffffffffffffffffff163373ffffffffffffffffffffffffffffffffffffffff1614611535576040517f08c379a000000000000000000000000000000000000000000000000000000000815260040161152c90612ac0565b60405180910390fd5b8060025f6101000a81548173ffffffffffffffffffffffffffffffffffffffff021916908373ffffffffffffffffffffffffffffffffffffffff1602179055507fc815d89d975fdb1cd9acd263359f94e17450afcac27532c7872f6a752728a729816040516115a491906123d8565b60405180910390a150565b5f5f5f9054906101000a900473ffffffffffffffffffffffffffffffffffffffff1673ffffffffffffffffffffffffffffffffffffffff166390509d4484846040518363ffffffff1660e01b815260040161160b929190612668565b602060405180830381865afa158015611626573d5f5f3e3d5ffd5b505050506040513d601f19601f8201168201806040525081019061164a9190612bef565b905092915050565b60048181548110611661575f80fd5b905f5260205f20015f915090505481565b6008602052825f5260405f20602052815f5260405f20602052805f5260405f205f92509250509054906101000a900460ff1681565b6003602052805f5260405f205f915090505481565b5f60075f8681526020019081526020015f205f8581526020019081526020015f205f8481526020019081526020015f2090505f73ffffffffffffffffffffffffffffffffffffffff16815f015f9054906101000a900473ffffffffffffffffffffffffffffffffffffffff1673ffffffffffffffffffffffffffffffffffffffff160361177e576040517f08c379a0000000000000000000000000000000000000000000000000000000008152600401611775906125bc565b60405180910390fd5b5f60095f3373ffffffffffffffffffffffffffffffffffffffff1673ffffffffffffffffffffffffffffffffffffffff1681526020019081526020015f205f8781526020019081526020015f205f8681526020019081526020015f205f8581526020019081526020015f205f9054906101000a900460ff1690508015611839576040517f08c379a000000000000000000000000000000000000000000000000000000000815260040161183090612c8a565b60405180910390fd5b82156118865760018260020160048282829054906101000a900463ffffffff166118639190612744565b92506101000a81548163ffffffff021916908363ffffffff1602179055506118c9565b60018260020160088282829054906101000a900463ffffffff166118aa9190612744565b92506101000a81548163ffffffff021916908363ffffffff1602179055505b600160095f3373ffffffffffffffffffffffffffffffffffffffff1673ffffffffffffffffffffffffffffffffffffffff1681526020019081526020015f205f8881526020019081526020015f205f8781526020019081526020015f205f8681526020019081526020015f205f6101000a81548160ff021916908315150217905550505050505050565b60015481565b6009602052835f5260405f20602052825f5260405f20602052815f5260405f20602052805f5260405f205f9350935050509054906101000a900460ff1681565b6005602052805f5260405f205f9150905080546119b59061241e565b80601f01602080910402602001604051908101604052809291908181526020018280546119e19061241e565b8015611a2c5780601f10611a0357610100808354040283529160200191611a2c565b820191905f5260205f20905b815481529060010190602001808311611a0f57829003601f168201915b505050505081565b5f5f9054906101000a900473ffffffffffffffffffffffffffffffffffffffff1673ffffffffffffffffffffffffffffffffffffffff1663da3cda52826040518263ffffffff1660e01b8152600401611a8d91906122a0565b5f604051808303815f87803b158015611aa4575f5ffd5b505af1158015611ab6573d5f5f3e3d5ffd5b5050505050565b5f60025f9054906101000a900473ffffffffffffffffffffffffffffffffffffffff1673ffffffffffffffffffffffffffffffffffffffff163373ffffffffffffffffffffffffffffffffffffffff1614611b4d576040517f08c379a0000000000000000000000000000000000000000000000000000000008152600401611b4490612ac0565b60405180910390fd5b5f5f5f9054906101000a900473ffffffffffffffffffffffffffffffffffffffff1673ffffffffffffffffffffffffffffffffffffffff1663575185ed6040518163ffffffff1660e01b81526004016020604051808303815f875af1158015611bb8573d5f5f3e3d5ffd5b505050506040513d601f19601f82011682018060405250810190611bdc9190612cbc565b9050838360055f8481526020019081526020015f209182611bfe929190612cf1565b5060015f815480929190611c1190612b94565b9190505550600481908060018154018082558091505060019003905f5260205f20015f90919091909150558091505092915050565b60025f9054906101000a900473ffffffffffffffffffffffffffffffffffffffff1681565b5f5ffd5b5f5ffd5b5f819050919050565b611c8581611c73565b8114611c8f575f5ffd5b50565b5f81359050611ca081611c7c565b92915050565b5f5f60408385031215611cbc57611cbb611c6b565b5b5f611cc985828601611c92565b9250506020611cda85828601611c92565b9150509250929050565b5f73ffffffffffffffffffffffffffffffffffffffff82169050919050565b5f611d0d82611ce4565b9050919050565b611d1d81611d03565b82525050565b5f81519050919050565b5f82825260208201905092915050565b8281835e5f83830152505050565b5f601f19601f8301169050919050565b5f611d6582611d23565b611d6f8185611d2d565b9350611d7f818560208601611d3d565b611d8881611d4b565b840191505092915050565b5f63ffffffff82169050919050565b611dab81611d93565b82525050565b5f60a082019050611dc45f830188611d14565b8181036020830152611dd68187611d5b565b9050611de56040830186611da2565b611df26060830185611da2565b611dff6080830184611da2565b9695505050505050565b5f8115159050919050565b611e1d81611e09565b8114611e27575f5ffd5b50565b5f81359050611e3881611e14565b92915050565b5f5f5f60608486031215611e5557611e54611c6b565b5b5f611e6286828701611c92565b9350506020611e7386828701611c92565b9250506040611e8486828701611e2a565b9150509250925092565b5f5f5f5f60808587031215611ea657611ea5611c6b565b5b5f611eb387828801611c92565b9450506020611ec487828801611c92565b9350506040611ed587828801611c92565b9250506060611ee687828801611e2a565b91505092959194509250565b611efb81611d03565b8114611f05575f5ffd5b50565b5f81359050611f1681611ef2565b92915050565b5f5f60408385031215611f3257611f31611c6b565b5b5f611f3f85828601611c92565b9250506020611f5085828601611f08565b9150509250929050565b5f5f5f60608486031215611f7157611f70611c6b565b5b5f611f7e86828701611c92565b9350506020611f8f86828701611c92565b9250506040611fa086828701611c92565b9150509250925092565b5f5ffd5b5f5ffd5b5f5ffd5b5f5f83601f840112611fcb57611fca611faa565b5b8235905067ffffffffffffffff811115611fe857611fe7611fae565b5b60208301915083600182028301111561200457612003611fb2565b5b9250929050565b5f5f5f5f6060858703121561202357612022611c6b565b5b5f61203087828801611c92565b945050602061204187828801611c92565b935050604085013567ffffffffffffffff81111561206257612061611c6f565b5b61206e87828801611fb6565b925092505092959194509250565b5f5f83601f84011261209157612090611faa565b5b8235905067ffffffffffffffff8111156120ae576120ad611fae565b5b6020830191508360208202830111156120ca576120c9611fb2565b5b9250929050565b5f5f5f5f606085870312156120e9576120e8611c6b565b5b5f6120f687828801611c92565b945050602061210787828801611c92565b935050604085013567ffffffffffffffff81111561212857612127611c6f565b5b6121348782880161207c565b925092505092959194509250565b5f5f5f6040848603121561215957612158611c6b565b5b5f61216686828701611c92565b935050602084013567ffffffffffffffff81111561218757612186611c6f565b5b61219386828701611fb6565b92509250509250925092565b5f819050919050565b5f6121c26121bd6121b884611ce4565b61219f565b611ce4565b9050919050565b5f6121d3826121a8565b9050919050565b5f6121e4826121c9565b9050919050565b6121f4816121da565b82525050565b5f60208201905061220d5f8301846121eb565b92915050565b5f6020828403121561222857612227611c6b565b5b5f61223584828501611f08565b91505092915050565b61224781611e09565b82525050565b5f6020820190506122605f83018461223e565b92915050565b5f6020828403121561227b5761227a611c6b565b5b5f61228884828501611c92565b91505092915050565b61229a81611c73565b82525050565b5f6020820190506122b35f830184612291565b92915050565b5f5f5f606084860312156122d0576122cf611c6b565b5b5f6122dd86828701611f08565b93505060206122ee86828701611c92565b92505060406122ff86828701611c92565b9150509250925092565b5f5f5f5f6080858703121561232157612320611c6b565b5b5f61232e87828801611f08565b945050602061233f87828801611c92565b935050604061235087828801611c92565b925050606061236187828801611c92565b91505092959194509250565b5f6020820190508181035f8301526123858184611d5b565b905092915050565b5f5f602083850312156123a3576123a2611c6b565b5b5f83013567ffffffffffffffff8111156123c0576123bf611c6f565b5b6123cc85828601611fb6565b92509250509250929050565b5f6020820190506123eb5f830184611d14565b92915050565b7f4e487b71000000000000000000000000000000000000000000000000000000005f52602260045260245ffd5b5f600282049050600182168061243557607f821691505b602082108103612448576124476123f1565b5b50919050565b7f506f737420646f6573206e6f74206578697374000000000000000000000000005f82015250565b5f612482601383611d2d565b915061248d8261244e565b602082019050919050565b5f6020820190508181035f8301526124af81612476565b9050919050565b7f5573657220686173206e6f7420766f746564206f6e207468697320706f7374005f82015250565b5f6124ea601f83611d2d565b91506124f5826124b6565b602082019050919050565b5f6020820190508181035f830152612517816124de565b9050919050565b7f4e487b71000000000000000000000000000000000000000000000000000000005f52601160045260245ffd5b5f61255582611d93565b91505f82036125675761256661251e565b5b600182039050919050565b7f537562506f737420646f6573206e6f74206578697374000000000000000000005f82015250565b5f6125a6601683611d2d565b91506125b182612572565b602082019050919050565b5f6020820190508181035f8301526125d38161259a565b9050919050565b7f5573657220686173206e6f7420766f746564206f6e207468697320737562706f5f8201527f7374000000000000000000000000000000000000000000000000000000000000602082015250565b5f612634602283611d2d565b915061263f826125da565b604082019050919050565b5f6020820190508181035f83015261266181612628565b9050919050565b5f60408201905061267b5f830185612291565b6126886020830184612291565b9392505050565b5f6040820190506126a25f830185612291565b6126af6020830184611d14565b9392505050565b7f557365722068617320616c726561647920766f746564206f6e207468697320705f8201527f6f73740000000000000000000000000000000000000000000000000000000000602082015250565b5f612710602383611d2d565b915061271b826126b6565b604082019050919050565b5f6020820190508181035f83015261273d81612704565b9050919050565b5f61274e82611d93565b915061275983611d93565b9250828201905063ffffffff8111156127755761277461251e565b5b92915050565b7f4d61696e20506f737420646f6573206e6f7420657869737400000000000000005f82015250565b5f6127af601883611d2d565b91506127ba8261277b565b602082019050919050565b5f6020820190508181035f8301526127dc816127a3565b9050919050565b7f4e487b71000000000000000000000000000000000000000000000000000000005f52604160045260245ffd5b5f819050815f5260205f209050919050565b5f6020601f8301049050919050565b5f82821b905092915050565b5f6008830261286c7fffffffffffffffffffffffffffffffffffffffffffffffffffffffffffffffff82612831565b6128768683612831565b95508019841693508086168417925050509392505050565b5f6128a86128a361289e84611c73565b61219f565b611c73565b9050919050565b5f819050919050565b6128c18361288e565b6128d56128cd826128af565b84845461283d565b825550505050565b5f5f905090565b6128ec6128dd565b6128f78184846128b8565b505050565b5b8181101561291a5761290f5f826128e4565b6001810190506128fd565b5050565b601f82111561295f5761293081612810565b61293984612822565b81016020851015612948578190505b61295c61295485612822565b8301826128fc565b50505b505050565b5f82821c905092915050565b5f61297f5f1984600802612964565b1980831691505092915050565b5f6129978383612970565b9150826002028217905092915050565b6129b082611d23565b67ffffffffffffffff8111156129c9576129c86127e3565b5b6129d3825461241e565b6129de82828561291e565b5f60209050601f831160018114612a0f575f84156129fd578287015190505b612a07858261298c565b865550612a6e565b601f198416612a1d86612810565b5f5b82811015612a4457848901518255600182019150602085019450602081019050612a1f565b86831015612a615784890151612a5d601f891682612970565b8355505b6001600288020188555050505b505050505050565b7f4e6f7420416c6c6f7765640000000000000000000000000000000000000000005f82015250565b5f612aaa600b83611d2d565b9150612ab582612a76565b602082019050919050565b5f6020820190508181035f830152612ad781612a9e565b9050919050565b5f82825260208201905092915050565b5f5ffd5b82818337505050565b5f612b068385612ade565b93507f07ffffffffffffffffffffffffffffffffffffffffffffffffffffffffffffff831115612b3957612b38612aee565b5b602083029250612b4a838584612af2565b82840190509392505050565b5f606082019050612b695f830187612291565b612b766020830186612291565b8181036040830152612b89818486612afb565b905095945050505050565b5f612b9e82611c73565b91507fffffffffffffffffffffffffffffffffffffffffffffffffffffffffffffffff8203612bd057612bcf61251e565b5b600182019050919050565b5f81519050612be981611e14565b92915050565b5f60208284031215612c0457612c03611c6b565b5b5f612c1184828501612bdb565b91505092915050565b7f557365722068617320616c726561647920766f746564206f6e207468697320735f8201527f7562706f73740000000000000000000000000000000000000000000000000000602082015250565b5f612c74602683611d2d565b9150612c7f82612c1a565b604082019050919050565b5f6020820190508181035f830152612ca181612c68565b9050919050565b5f81519050612cb681611c7c565b92915050565b5f60208284031215612cd157612cd0611c6b565b5b5f612cde84828501612ca8565b91505092915050565b5f82905092915050565b612cfb8383612ce7565b67ffffffffffffffff811115612d1457612d136127e3565b5b612d1e825461241e565b612d2982828561291e565b5f601f831160018114612d56575f8415612d44578287013590505b612d4e858261298c565b865550612db5565b601f198416612d6486612810565b5f5b82811015612d8b57848901358255600182019150602085019450602081019050612d66565b86831015612da85784890135612da4601f891682612970565b8355505b6001600288020188555050505b5050505050505056fea264697066735822122031a92156cefcf7b95ef72e43fec3c2b27cdc8fb28f4708840f924d3ef887cc2464736f6c634300081c0033","linkReferences":{}},"methodIdentifiers":{"acceptGroupAdmin(uint256)":"da3cda52","addMember(uint256,uint256)":"1783efc3","admin()":"f851a440","changeAdmin(address)":"8f283970","changeGroupAdmin(uint256,address)":"43ec86ed","createGroup(string)":"dc2ddcae","createMainPost(uint256,string)":"6cff15cc","createSubPost(uint256,uint256,string)":"66efb926","deleteVoteOnPost(uint256,uint256,bool)":"0a3d1f8a","deleteVoteOnSubPost(uint256,uint256,uint256,bool)":"0b279171","groupCounter()":"d24924fe","groupNames(uint256)":"d6271edf","groupPostCounters(uint256)":"bbff66f9","groupPosts(uint256,uint256)":"095c7f28","groups(uint256)":"96324bd4","isGroupMember(uint256,uint256)":"8f89921a","postSubPosts(uint256,uint256,uint256)":"49d3a50a","removeMember(uint256,uint256,uint256[])":"6cdd32fe","semaphore()":"7b5d2534","userPostVotes(address,uint256,uint256)":"9db2cb82","userSubPostVotes(address,uint256,uint256,uint256)":"d4d59e83","voteOnPost(uint256,uint256,bool)":"46dbd6cd","voteOnSubPost(uint256,uint256,uint256,bool)":"c2d4ccc8"},"id":18}